:020000040800F2
:10000000180400209D0100082F0400086B0300085D
:100010002D040008110200086D0A0008000000000D
:10002000000000000000000000000000E9050008DA
:100030001302000800000000D50400087D08000835
:10004000B7010008B7010008B7010008B7010008B0
:10005000B7010008B7010008B7010008B7010008A0
:10006000B7010008B7010008B7010008B701000890
:10007000B7010008B7010008B7010008B701000880
:10008000B7010008B7010008B7010008B701000870
:10009000B7010008B7010008B7010008B701000860
:1000A000B7010008B7010008B7010008B701000850
:1000B000B7010008B7010008B7010008B701000840
:1000C000B7010008B7010008B7010008B701000830
:1000D000B7010008B7010008B7010008B701000820
:1000E000B7010008B7010008B7010008B701000810
:1000F000B7010008B7010008B7010008B701000800
:10010000B7010008B7010008B7010008B7010008EF
:10011000B7010008DD080008B7010008B7010008B2
:10012000B7010008B7010008B7010008B7010008CF
:10013000B7010008B7010008B7010008B7010008BF
:10014000B7010008B7010008B7010008B7010008AF
:10015000B7010008B7010008B7010008B70100089F
:10016000B7010008B7010008B7010008B70100088F
:10017000B7010008B7010008B7010008B70100087F
:10018000B7010008B7010008DFF80CD000F02EF826
:10019000004800472D0D000818040020064880473D
:1001A00006480047FEE7FEE7FEE7FEE7FEE7FEE75C
:1001B000FEE7FEE7FEE7FEE7810800088901000888
:1001C00030B50B46014600202022012409E021FA27
:1001D00002F59D4205D303FA02F5491B04FA02F524
:1001E0002844151EA2F10102F1DC30BD064C074D7A
:1001F00006E0E06840F0010394E8070098471034F7
:10020000AC42F6D3FFF7C4FF200E0008400E0008F2
:10021000FEE7704770B586B001210C2000F05CF954
:100220000121080500F066F900248DF81640012030
:100230008DF8170002258DF815508DF81450000325
:1002400004901C4E04A9304600F03AF88DF8145082
:1002500004210491184D04A9284600F031F8082221
:100260000221284600F06AF808220C21304600F0EE
:1002700065F84FF4E1300090ADF80440ADF8064069
:10028000ADF80840ADF80C400C20ADF80A000B4C5E
:100290006946204600F084FB00F0CAF8012240F2D3
:1002A0002551204600F061FB0121204600F02AFB89
:1002B00006B070BD00080240000C02400050004033
:1002C0002DE9F041002201274FF0030C07FA02F557
:1002D0000B682B40AB422CD1066853000CFA03F498
:1002E000A64306600E79D0F800809E4046EA0806D4
:1002F00006600E79012E01D0022E12D18668A64327
:1003000086604E79D0F808809E4046EA08068660EE
:100310004668AE43466045688E799640B6B235432E
:100320004560C568A543C560CC799C40C3681C4343
:10033000C460521C102AC9D3BDE8F08110B54B0728
:10034000DB0E9A40C90800EB8100016A0F249C4033
:10035000A1430162016A1143016210BD02460020FF
:1003600012690A4200D001207047FEE71CB5012146
:10037000052000F0B1F80120009000248DF8044021
:100380008DF8074069460748FFF79AFF4FF4005081
:1003900000908DF804408DF8074069460248FFF749
:1003A0008FFF1CBD000002400008024070B50446EB
:1003B0000D4629462046FFF7D1FF012801D0002035
:1003C00070BD29462046FFF7C9FF0128F9D001205A
:1003D00070BD00002DE9FC410121202000F07CF8D7
:1003E0004024009401208DF8040000218DF80610AF
:1003F0008DF807008DF805100B4F69463846FFF75A
:100400005FFF8026009669463846FFF759FFA50032
:10041000009569463846FFF753FF034818300480BB
:1004200006800580BDE8FC8100140240FEE77047AD
:1004300008B54FF4A06000F043F835208DF80000B7
:1004400001208DF801008DF802008DF80300684648
:1004500000F002F808BD000030B50F23C278012576
:100460000178002A1FD0154A126802F4E062C2F532
:10047000E062C2F30722C2F10404D3404278A240F2
:1004800084781C401443220101F1E02181F800240A
:10049000007800F01F018D404009800000F1E0204D
:1004A000C0F8005130BD01F01F00854048098000B0
:1004B00000F1E020C0F8805130BD00000CED00E0FC
:1004C0000249084302490860704700000000FA052D
:1004D0000CED00E070470000054A002903D01168C8
:1004E000014311607047116881431160704700003B
:1004F00030380240054A002903D0116801431160D9
:100500007047116881431160704700004038024015
:1005100070B5244B196801F00C01234C00291ED042
:10052000224E04291DD008291DD00460196801F04D
:10053000F00109091E4A545C0168E14041601C68F1
:1005400004F4E054A40A145D21FA04F484601B68E6
:1005500003F460435B0BD25CD140C16070BD0460AA
:10056000E4E70660E2E70F4A121F1168C1F3805505
:10057000116801F03F0135B1B6FBF1F11468C4F325
:100580008814614305E0B4FBF1F11468C4F38814E6
:1005900061431268C2F30142521C5200B1FBF2F1F6
:1005A0000160C3E7083802400024F40040787D0170
:1005B00000000020412805D042280BD0432811D04C
:1005C00000207047491C480702D001F0070070471F
:1005D00001207047C91D480702D001F0070070478D
:1005E0000720704708207047704700000CB50022B4
:1005F000019200922749086840F4803008604FF467
:10060000A043086800F4003000900198401C01905D
:10061000009810B901989842F3D10868800302D578
:100620000120009000E000920098012831D1194883
:100630004030026842F0805202601748026842F47B
:10064000404202601348083002680260026842F4C7
:1006500000420260026842F4A0520260021F0F4B87
:1006600013600A6842F080720A600A689201FCD541
:100670000B4A40F205711160016821F0030101602D
:10068000016841F0020101600168C1F381010229A2
:10069000FAD10CBD003802400070004019544007E8
:1006A000003C024010B514A000F032FA4FF4E131E2
:1006B0001DA000F02DFA25A000F02AFA30A000F0CD
:1006C00027FA36A000F024FA3BA000F021FA41A05E
:1006D00000F01EFA46A000F01BFA4CA000F018FA39
:1006E00051A000F015FA57A000F012FABDE8104032
:1006F0005BA000F00DBA00000D0A202020D5E2CA50
:10070000C7D2BBB8F6CDA8B9FDB4AEBFDACDA8D07C
:10071000C5D6B8C1EEBFD8D6C6524742B2CAB5C6D2
:10072000CAB5D1E9200A0000CAB9D3C32020555365
:10073000415254312020B2CECAFDCEAAA3BA2564BC
:1007400020382D4E2D31200A00000000BFAAB7A28C
:10075000B0E5BDD3B5BDD6B8C1EEBAF3BFD8D6C6E5
:10076000524742B2CAB5C6D1D5C9ABA3ACD6B8C1FF
:10077000EEB6D4D3A6C8E7CFC2A3BA0A00000000E1
:10078000202020D6B8C1EE2020202D2D2D2D2D2D5E
:1007900020B2CAB5C6D1D5C9AB200A00202020207E
:1007A0002031202020202D2D2D2D2D2D20202020EA
:1007B000BAEC200A00000000202020202032202057
:1007C00020202D2D2D2D2D2D20202020C2CC200AA3
:1007D00000000000202020202033202020202D2D6C
:1007E0002D2D2D2D20202020C0B6200A0000000035
:1007F000202020202034202020202D2D2D2D2D2D97
:1008000020202020BBC6200A00000000202020203D
:100810002035202020202D2D2D2D2D2D2020202075
:10082000D7CF200A000000002020202020362020E2
:1008300020202D2D2D2D2D2D20202020C7E0200A19
:1008400000000000202020202037202020202D2DF7
:100850002D2D2D2D20202020B0D7200A00000000B3
:10086000202020202038202020202D2D2D2D2D2D22
:1008700020202020C3F0200A000000007047000064
:1008800010B51248016841F4700101601048016818
:1008900041F0010101600E4A002108321160026836
:1008A0000C4B1A400260031D0B4A1A60026822F4C6
:1008B0008022026006480C300160FFF797FE034972
:1008C0004FF000608039086010BD000088ED00E046
:1008D00000380240FFFFF6FE1030002410B5074C30
:1008E00040F22551204600F020F8002804D0204690
:1008F00000F0B4F80249087010BD0000005000403C
:1009000010000020002904D0818941F40051818128
:100910007047818921F4005181817047024600208F
:1009200012880A4200D00120704770B5002440F6BA
:100930006A12C1F3421301F01F05012606FA05F2FF
:10094000012B0CD0022B0DD0838A1340090A8E4054
:10095000008830400BB100B10124204670BD83896E
:100960001340F3E7038A1340F0E710B540F66A132B
:10097000C1F3421301F01F040121A140012B07D054
:10098000022B07D014303AB102680A43026010BD4E
:100990000C30F8E71030F6E702688A43026010BDB9
:1009A0007FB504460D46208A20F44051E88808436C
:1009B0002082A08941F20C618843A9882A891143C9
:1009C0006A8902431143A181A08A20F44071A88959
:1009D0000843A0826846FFF79BFD1E48844202D070
:1009E0001D48844201D1039800E00298A1890904BE
:1009F00008D500EBC00101EB001029684900B0FBED
:100A0000F1F007E000EBC00101EB0010296889005C
:100A1000B0FBF1F06422B0FBF2F109010B096FF0B9
:100A200018056B4300EB8300A3891D044FF03203CC
:100A300007D503EBC000B0FBF2F000F0070008435D
:100A400006E003EB0010B0FBF2F000F00F000843EB
:100A500020817FBD00100140001401408088C0F358
:100A600008007047C1F3080181807047FEE710B5A8
:100A700004462046FFF7F6FF80212046FFF74EFF91
:100A80000028F9D010BD70B506460D46002430464A
:100A9000295DFFF7ECFF641C285D0028F7D1402199
:100AA0003046FFF73BFF0028F9D070BD70B5174DF9
:100AB00040218022AC1E8B00092809D2DFE800F01B
:100AC0000805090D1115191D210029802280238098
:100AD00070BD21802A80238070BD218022802B80E0
:100AE00070BD29802A80238070BD298022802B80C0
:100AF00070BD21802A802B8070BD29802A802B80A8
:100B000070BD21802280238070BD00001A14024035
:100B10000FB4054B10B503A9044A029800F018F869
:100B200010BC5DF814FB0000090D00081400002043
:100B300002E008C8121F08C1002AFAD170477047A6
:100B4000002001E001C1121F002AFBD17047000004
:100B50002DE9FF4F8BB09A460F460546002606E06A
:100B600025280BD052460D9990476D1C761C28788D
:100B70000028F5D10FB03046BDE8F08F0024A04624
:100B80000122604900E0044315F8013F203B02FACE
:100B900003F00842F7D128782E2817D115F8010F55
:100BA00044F004042A280ED06FF02F022878A0F118
:100BB000300109290AD808EB880102EB410100EB5A
:100BC00001086D1CF2E757F8048B6D1C2878692822
:100BD0003ED006DC0028CDD063280BD0642804D199
:100BE00036E0732810D075284BD052460D999047A7
:100BF000761C85E017F8040B8DF8000000208DF8B6
:100C00000100E946012003E057F8049B4FF0FF3054
:100C100061074FF0000401D40AE0641C44450DDA7A
:100C20008442FADB19F804100029F6D106E0641CAE
:100C30008442FCDB19F804100029F8D1264404E0B2
:100C400019F8010B52460D999047641EF8D257E0EF
:100C500001CF4FF00A0B002802DA40422D2102E0BA
:100C6000210504D52B218DF82410012103E0E10793
:100C700005D02021F7E70DF1200908910CE00021B3
:100C8000F9E701CF4FF00A0BF9E75946FFF798FA59
:100C900001F1300209F8012D0028F6D1ADEB090071
:100CA00000F1200B600701D44FF00108D84502DDA8
:100CB000A8EB0B0000E000208046002406E009A815
:100CC0005246005D0D999047641C761C089884423A
:100CD000F5DB04E0302052460D999047761CB8F1C0
:100CE0000001A8F10108F5DC05E019F8010B5246F6
:100CF0000D999047761CBBF10001ABF1010BF4DCC0
:100D00006D1C34E70928010070B50446064DE1B2B8
:100D10002846FFF7A7FE80212846FFF7FFFD0028A1
:100D2000F9D0204670BD000000500040002500248E
:100D3000FFF750FBFFF71AFBFFF76CFAFFF7B2FC67
:100D400023A12848FFF79FFE274FDFF8A0804FF030
:100D500040094FF0800A4FF4807B21463878FFF736
:100D600029FC04463978A94201D1B44206D020A01A
:100D7000FFF7CEFE214624A0FFF7CAFE3D782646A7
:100D800001212548FFF712FB01280BD1412115480D
:100D9000FFF76DFE1548801CA0F80090A8F800A091
:100DA000A8F800B04FF400511C48FFF7FFFA0128E3
:100DB00009D142210B48FFF75AFEA8F80090A8F885
:100DC00000A0A8F800B02046FFF770FEC5E70000BD
:100DD000D7E6D5C5D2C0A3ACCED2A1ADA1ADCFEBE5
:100DE000C4E30A0000500040100000201814024024
:100DF0004D61696E3ABDD3CAD5B5BDB5C4D7D6B7B6
:100E0000FB25630D0A0000004C4544BCC6CAFDC664
:100E1000F7A3BA25640A000000000240000802405F
:100E2000400E00080000002018000000300B0008F1
:100E3000580E00081800002000040000400B0008B5
:100E40000000000001020304010203040607080970
:080E500000000000000000009A
:040000050800018965
:00000001FF
