:030000000209579B
:0C095700787FE4F6D8FD75812D02099E22
:100A6400D5E2CAC7D2BBB8F63135D3EB3332CBAB00
:0F0A7400BBFACDA8D0C5B5C4B2E2CAD40D0A00F2
:040B2D0002100001B1
:10080000120A837F647E00120B08120A9D120B1CD1
:10081000D2A9D2ACD2AF7F647E00120B3E7BFF7AAE
:100820000A7964120A1C7F647E00120B3EAE10AF80
:10083000117C007D141208CCEC7056ED24FD601C78
:1008400024FD602C24FE603C24087045120AB4EF9D
:100850004E603E7F41120B57C2C88031120AC9EF69
:100860004E602E7F42120B57D2C8C2C9D2CA802115
:10087000120ADEEF4E601A7F43120B57D2C8D2C95C
:10088000C2CA800D120AF3EF4E6006D2C8D2C9D296
:10089000CA74112526F8E6B44106C2C8C2C9C2CA44
:1008A00074072526F8E664427083D2C8D2C9D2CA3A
:0308B00002082D0E
:030023000209E3EC
:1009E300C0E0C0D075D008C2C8D2C9D2CAC2AC3028
:1009F300981AC298AF26052674122FF8A699D3E544
:100A0300269414748094804003752600D2ACD2C817
:090A1300D2C9D2CAD0D0D0E03221
:03000B00020A41A5
:100A4100C0E0C2A9C28CE511641E45107006F51004
:100A5100F51180080511E51170020510D28CD2A99B
:030A6100D0E032B0
:100B1C00438E805389F0758A20758CD1C28DD28C0E
:010B2C0022A6
:100A8300E4F594F593F592F591F596F595F5B2F5B0
:0A0A9300B1F5B4F5B3F5CAF5C922B8
:0C0B3100012700012800012900012A0012
:100AB400E4FF20A00AE52770090F7527018003E4ED
:040AC400F5277E0094
:010AC800220B
:100AC900E4FF20A10AE52870090F7528018003E4D5
:040AD900F5287E007E
:010ADD0022F6
:100ADE00E4FF20A20AE52970090F7529018003E4BD
:040AEE00F5297E0068
:010AF20022E1
:100AF300E4FF20A30AE52A70090F752A018003E4A5
:040B0300F52A7E0051
:010B070022CB
:050B5F0000000000226F
:080B4E007F0C7EA9DEFEDFFC36
:010B5600227C
:100B0800AD07AC06ED1DAE0470011C4E6005120B5E
:040B18004E80F122F8
:100B3E00EF1FAC0670011E4C6005120B5F80F12298
:100A9D00759850438E40538EFE53890F758BE675B6
:070AAD008DFFC2ABD28E22C7
:080B57008F993099FDC299222B
:100A1C008B2B8A2C892DAB2BAA2CA92D1208B360F9
:100A2C0013052DE52D7002052C14F91208B3FF12D5
:050A3C000B5780E222CF
:10096300020800E493A3F8E493A34003F68001F2A2
:1009730008DFF48029E493A3F85407240CC8C33395
:10098300C4540F4420C8834004F456800146F6DF64
:10099300E4800B0102040810204080900B2DE47EBC
:1009A300019360BCA3FF543F30E509541FFEE49359
:1009B300A360010ECF54C025E060A840B8E493A320
:1009C300FAE493A3F8E493A3C8C582C8CAC583CA4B
:1009D300F0A3C8C582C8CAC583CADFE9DEE780BE03
:010B3D0000B7
:1008B300BB010689828A83E0225002E722BBFE0243
:0908C300E32289828A83E4932276
:1008CC00C2D5EC30E709B2D5E4C39DFDE49CFCEE47
:1008DC0030E715B2D5E4C39FFFE49EFE120902C3B4
:1008EC00E49DFDE49CFC800312090230D507C3E4AF
:0608FC009FFFE49EFE22B6
:10090200BC000BBE0029EF8DF084FFADF022E4CCD9
:10091200F875F008EF2FFFEE33FEEC33FCEE9DECA2
:10092200984005FCEE9DFE0FD5F0E9E4CEFD22EDE8
:10093200F8F5F0EE8420D21CFEADF075F008EF2F32
:10094200FFED33FD4007985006D5F0F222C398FD23
:050952000FD5F0EA22C0
:00000001FF
