:020000040800F2
:10000000580400209D0100089F04000841040008D6
:100010009D040008E5010008B10800080000000088
:100020000000000000000000000000008105000842
:100030009103000800000000A10400083D0600082C
:10004000B7010008B7010008B7010008B7010008B0
:10005000B7010008B7010008B7010008B7010008A0
:10006000B7010008B7010008B7010008B701000890
:10007000B7010008B7010008B7010008B701000880
:10008000B7010008B7010008B7010008B701000870
:10009000B7010008B7010008B7010008B701000860
:1000A000B7010008B7010008B7010008B701000850
:1000B000B7010008B7010008B7010008B701000840
:1000C000B7010008B7010008B7010008B701000830
:1000D000B7010008B7010008B7010008B701000820
:1000E000B7010008B7010008B7010008B701000810
:1000F000B7010008B7010008B7010008B701000800
:10010000B7010008B7010008B7010008B7010008EF
:10011000B7010008B7010008B7010008B7010008DF
:10012000B7010008B7010008B7010008B7010008CF
:10013000B7010008B7010008B7010008B7010008BF
:10014000B7010008B7010008B7010008B7010008AF
:10015000B7010008B7010008B7010008B70100089F
:10016000B7010008B7010008B7010008B70100088F
:10017000B7010008B7010008B7010008B70100087F
:10018000B7010008B7010008DFF80CD000F018F83C
:100190000048004729090008580400200648804705
:1001A00006480047FEE7FEE7FEE7FEE7FEE7FEE75C
:1001B000FEE7FEE7FEE7FEE74106000889010008CA
:1001C000064C074D06E0E06840F0010394E80700A4
:1001D00098471034AC42F6D3FFF7DAFF88090008DD
:1001E000A8090008FEE7002904D0016841F00101D8
:1001F00001607047016821F0010101607047000053
:100200002DE9F043016821F0010101600021016046
:1002100041608160C1600161212141613E493E4AE6
:1002200010394FF03D08904203D1C1F80880BDE875
:10023000F083394A4FF474651832904201D18D60D1
:10024000F5E7354A4FF474163032904201D18E6092
:10025000EDE7314A4FF074674832904201D18F6028
:10026000E5E72D4B2D4A6033984201D1CA60DEE7A5
:10027000294C2B4B7834A04201D1CB60D7E7DFF873
:1002800098C0284C0CF1900C604501D1CC60CEE7B1
:10029000DFF884904FF03D5C09F1A809484502D190
:1002A000C1F80CC0C3E72049DFF87C900839484505
:1002B00002D1C1F80080BAE7DFF86C8008F11808B5
:1002C000404501D10D60B2E7174D3035A84201D14C
:1002D0000E60ACE7144D4835A84201D10F60A6E787
:1002E000114D11496035091FA84201D10A609EE7EE
:1002F0000D4A7832904201D10B6098E70A4A903259
:10030000904201D10C6092E7074AA83290428ED108
:10031000C1F800C08BE70000106002403D000020E3
:10032000400F002000003D201064024001460020E4
:100330000968C90700D001207047000030B5036884
:10034000124A1340CC680A682243D1E905452C4380
:100350002243CC6922430C6A22434C6A22438C6AB2
:1003600022434C6B22438C6B22431A430260426946
:1003700022F00703D1E90B2422431A4342610A69A0
:1003800042604A6882608968C16030BD3F801CF06D
:10039000704701B502E00098401E009000980028C8
:1003A000F9D108BD2DE9F041002201274FF0030CDF
:1003B00007FA02F50B682B40AB422CD106685300BC
:1003C0000CFA03F4A64306600E79D0F800809E4034
:1003D00046EA080606600E79012E01D0022E12D1DF
:1003E0008668A64386604E79D0F808809E4046EA2B
:1003F000080686604668AE43466045688E7996403A
:10040000B6B235434560C568A543C560CC799C400C
:10041000C3681C43C460521C102AC9D3BDE8F081D4
:1004200010B54B07DB0E9A40C90800EB8100016A4A
:100430000F249C40A1430162016A1143016210BD77
:10044000FEE700002DE9FC410121202000F02AF800
:100450004024009401208DF8040000218DF806103E
:100460008DF807008DF805100B4F69463846FFF7E9
:1004700099FF8026009669463846FFF793FFA5004E
:10048000009569463846FFF78DFF03481830048011
:1004900006800580BDE8FC8100140240FEE770473D
:1004A00070470000054A002903D01168014311601C
:1004B0007047116881431160704700003038024076
:1004C000054A002903D01168014311607047116883
:1004D00081431160704700004438024070B5244BDE
:1004E000196801F00C01234C00291ED0224E04296A
:1004F0001DD008291DD00460196801F0F001090918
:100500001E4A545C0168E14041601C6804F4E054F8
:10051000A40A145D21FA04F484601B6803F46043A8
:100520005B0BD25CD140C16070BD0460E4E7066043
:10053000E2E70F4A121F1168C1F38055116801F0FC
:100540003F0135B1B6FBF1F11468C4F3881461437F
:1005500005E0B4FBF1F11468C4F388146143126838
:10056000C2F30142521C5200B1FBF2F10160C3E739
:10057000083802400024F40040787D01000000208B
:10058000704700000CB500220192009227490868CC
:1005900040F4803008604FF4A043086800F4003055
:1005A00000900198401C0190009810B90198984261
:1005B000F3D10868800302D50120009000E000928A
:1005C0000098012831D119484030026842F0805229
:1005D00002601748026842F4404202601348083043
:1005E00002680260026842F400420260026842F45B
:1005F000A0520260021F0F4B13600A6842F0807223
:100600000A600A689201FCD50B4A40F2057111603C
:10061000016821F003010160016841F002010160FD
:100620000168C1F381010229FAD10CBD00380240F2
:100630000070004019544007003C02407047000021
:1006400010B51248016841F470010160104801685A
:1006500041F0010101600E4A002108321160026878
:100660000C4B1A400260031D0B4A1A60026822F408
:100670008022026006480C300160FFF783FF0349C7
:100680004FF000608039086010BD000088ED00E088
:1006900000380240FFFFF6FE10300024002904D08D
:1006A000818941F4005181817047818921F4005191
:1006B0008181704770B586B001210846FFF7F2FED0
:1006C00001211020FFF7FCFE1E4E07220A213046B2
:1006D000FFF7A6FE072209213046FFF7A1FE0024FE
:1006E0008DF8164001208DF8170002258DF8145062
:1006F000410204918DF8155004A93046FFF752FECF
:100700008DF814506802049004A93046FFF74AFEA1
:100710004FF4E1300090ADF80440ADF80640ADF87C
:100720000840ADF80C400C20ADF80A00064C6946B4
:10073000204600F05BF801212046FFF7AFFF06B02E
:1007400070BD00000000024000100140002A03D0EC
:10075000828A0A4382827047828A8A4382827047F1
:1007600010B590B001218805FFF79CFE184C20467B
:10077000FFF746FD2046FFF7D9FD0028FAD14FF0DC
:1007800000600190134802901348039040200490A9
:1007900020200590002006904FF48061079108907A
:1007A00009900A9089010B910C9003210D910E90F4
:1007B0000F9001A92046FFF7C1FD01212046FFF758
:1007C00012FD2046FFF7B2FD0128FAD110B010BD8E
:1007D000B8640240041001403400002002460020AA
:1007E00012880A4200D00120704700007FB50446FD
:1007F0000D46208A20F44051E88808432082A089D1
:1008000041F20C618843A9882A8911436A8902430D
:100810001143A181A08A20F44071A8890843A082D5
:100820006846FFF75BFE1E48844202D01D488442A2
:1008300001D1039800E00298A189090408D500EBD2
:10084000C00101EB001029684900B0FBF1F007E09E
:1008500000EBC00101EB001029688900B0FBF1F04A
:100860006422B0FBF2F109010B096FF018056B432C
:1008700000EB8300A3891D044FF0320307D503EB7F
:10088000C000B0FBF2F000F00700084306E003EB05
:100890000010B0FBF2F000F00F00084320817FBD94
:1008A0000010014000140140C1F30801818070472D
:1008B000FEE70000014A024900F013B805090008EC
:1008C0003000002002E008C8121F08C1002AFAD137
:1008D00070477047002001E001C1121F002AFBD1C0
:1008E00070472DE9F04116460F460446002503E007
:1008F0003946B047641C6D1C20780028F8D1284682
:10090000BDE8F08170B50446064DE1B22846FFF718
:10091000CBFF80212846FFF761FF0028F9D0204651
:1009200070BD0000001001401F24FFF7C3FEFFF759
:1009300017FFFFF787FD01200D4A0E4904E0131849
:1009400013F8013C0B54401CA042F8DB0AA0FFF74F
:10095000B1FF012280210948FFF7F8FE084C094D3C
:10096000216881F0400121602846FFF712FDF7E77A
:1009700010000020340000200D0A0000001001408B
:1009800014140240FFFF0F00A80900080000002017
:1009900034000000C4080008DC090008340000200E
:1009A00024040000D4080008000000000102030431
:1009B0000102030406070809D7E6D5C5D2C02CD525
:1009C000E6CAC7B3ACBCB6BFC9B0AEC4D85E2B5E76
:0C09D00022DFF77E0D0A0000000000008E
:040000050800018965
:00000001FF
