:020000040800F2
:10000000800400209D010008C7050008690500085C
:10001000C5050008030200080507000800000000ED
:10002000000000000000000000000000E9050008DA
:10003000D904000800000000C9050008A506000852
:10004000B7010008B7010008B7010008B7010008B0
:10005000B7010008B7010008B7010008B7010008A0
:10006000B7010008B7010008B7010008B701000890
:10007000B7010008B7010008B7010008B701000880
:10008000B7010008B7010008B7010008B701000870
:10009000B7010008B7010008B7010008B701000860
:1000A000B7010008B7010008B7010008B701000850
:1000B000B7010008B7010008B7010008B701000840
:1000C000B7010008B7010008B7010008B701000830
:1000D000B7010008B7010008B7010008B701000820
:1000E000B7010008B7010008B7010008B701000810
:1000F000B7010008B7010008B7010008B701000800
:10010000B7010008B7010008B7010008B7010008EF
:10011000B7010008B7010008B7010008B7010008DF
:10012000B7010008B7010008B7010008B7010008CF
:10013000B7010008B7010008B7010008B7010008BF
:10014000B7010008B7010008B7010008B7010008AF
:10015000B7010008B7010008B7010008B70100089F
:10016000B7010008B7010008B7010008B70100088F
:10017000B7010008B7010008B7010008B70100087F
:10018000B7010008B7010008DFF80CD000F018F83C
:1001900000480047250700088004002006488047E3
:1001A00006480047FEE7FEE7FEE7FEE7FEE7FEE75C
:1001B000FEE7FEE7FEE7FEE7A90600088901000862
:1001C000064C074D06E0E06840F0010394E80700A4
:1001D00098471034AC42F6D3FFF7DAFF1008000856
:1001E0002008000810B507E003680C68A34201D09E
:1001F000002010BD001D091D521E92B2F4D2012034
:1002000010BDFEE7074A904201D2074801E00548C9
:100210001038064A8B0001EA020101D5C16070471F
:100220008160704710640240006002407D0F7D0FC6
:10023000002904D0016841F00101016070470168A4
:1002400021F00101016070472DE9F04190B042F2C8
:10025000107600960121880500F0B8F9284C204658
:1002600000F058F8204600F0EBF80028FAD1019091
:100270002449029124490391802504952021059168
:1002800009010691490007918900089189000991A7
:100290000A90C9000B9104210C9103210D91C9050D
:1002A0000E910F9001A9204600F0ECF81749204666
:1002B000FFF7A8FF01212046FFF7BAFF009620466E
:1002C00000F0BEF8012803D00098411E0091F6D23C
:1002D0000098002811D10E4840270780841E2580F1
:1002E000861526806FF07F48404600F0F6F827809C
:1002F00025802680404600F0F0F810B0BDE8F0817F
:100300001064024090070008000000202000001048
:100310001A1402402DE9F043016821F00101016047
:100320000021016041608160C16001612121416162
:100330003E493E4A10394FF03D08904203D1C1F882
:100340000880BDE8F083394A4FF474651832904252
:1003500001D18D60F5E7354A4FF474163032904282
:1003600001D18E60EDE7314A4FF074674832904218
:1003700001D18F60E5E72D4B2D4A6033984201D1C2
:10038000CA60DEE7294C2B4B7834A04201D1CB6008
:10039000D7E7DFF898C0284C0CF1900C604501D1EC
:1003A000CC60CEE7DFF884904FF03D5C09F1A809FE
:1003B000484502D1C1F80CC0C3E72049DFF87C9062
:1003C0000839484502D1C1F80080BAE7DFF86C80EF
:1003D00008F11808404501D10D60B2E7174D3035DE
:1003E000A84201D10E60ACE7144D4835A84201D1B6
:1003F0000F60A6E7114D11496035091FA84201D1D0
:100400000A609EE70D4A7832904201D10B6098E76E
:100410000A4A9032904201D10C6092E7074AA83212
:1004200090428ED1C1F800C08BE7000010600240FE
:100430003D000020400F002000003D2010640240DD
:10044000014600200968C90700D00120704700005C
:1004500002460020084B9A4201D2084A01E0064AAF
:10046000103A8B0001D5526800E01268044B1A4024
:100470000A4200D001207047106402400060024030
:100480007D0F7D0F30B50368124A1340CC680A68AF
:100490002243D1E905452C432243CC6922430C6A0F
:1004A00022434C6A22438C6A22434C6B22438C6B5E
:1004B00022431A430260426922F00703D1E90B2468
:1004C00022431A4342610A6942604A68826089682D
:1004D000C16030BD3F801CF0704701B502E000985C
:1004E000401E009000980028F9D108BD2DE9F04188
:1004F000002201274FF0030C07FA02F50B682B408E
:10050000AB422CD1066853000CFA03F4A6430660F4
:100510000E79D0F800809E4046EA080606600E7903
:10052000012E01D0022E12D18668A64386604E7934
:10053000D0F808809E4046EA080686604668AE43CA
:10054000466045688E799640B6B235434560C568C9
:10055000A543C560CC799C40C3681C43C460521C51
:10056000102AC9D3BDE8F081FEE700002DE9FC4167
:100570000121202000F02AF84024009401208DF869
:10058000040000218DF806108DF807008DF8051085
:100590000B4F69463846FFF7A9FF8026009669464B
:1005A0003846FFF7A3FFA500009569463846FFF7D8
:1005B0009DFF03481830048006800580BDE8FC815B
:1005C00000140240FEE7704770470000054A00290A
:1005D00003D01168014311607047116881431160B5
:1005E0007047000030380240704700000CB5002210
:1005F000019200922749086840F4803008604FF467
:10060000A043086800F4003000900198401C01905D
:10061000009810B901989842F3D10868800302D578
:100620000120009000E000920098012831D1194883
:100630004030026842F0805202601748026842F47B
:10064000404202601348083002680260026842F4C7
:1006500000420260026842F4A0520260021F0F4B87
:1006600013600A6842F080720A600A689201FCD541
:100670000B4A40F205711160016821F0030101602D
:10068000016841F0020101600168C1F381010229A2
:10069000FAD10CBD003802400070004019544007E8
:1006A000003C02407047000010B51248016841F458
:1006B000700101601048016841F0010101600E4ABB
:1006C00000210832116002680C4B1A400260031DC1
:1006D0000B4A1A60026822F48022026006480C303D
:1006E0000160FFF783FF03494FF000608039086025
:1006F00010BD000088ED00E000380240FFFFF6FE6C
:1007000010300024FEE702E008C8121F08C1002ACA
:10071000FAD170477047002001E001C1121F002A82
:10072000FBD17047FFF722FF144C4025258080261F
:10073000A71C3E804FF48078A4F800806FF07F40C3
:10074000FFF7CBFEFFF780FDDFF83490DFF834A031
:1007500049465046FFF77CFE0028F9D020220A497E
:100760000A48FFF73FFD20B125802680A7F80080CA
:10077000FEE73D802680A4F80080F9E718140240C7
:1007800020000010106402400000002090070008C4
:1007900004030201080706050C0B0A09100F0E0DD1
:1007A00014131211181716151C1B1A19201F1E1DC1
:1007B00024232221282726252C2B2A29302F2E2DB1
:1007C00034333231383736353C3B3A39403F3E3DA1
:1007D00044434241484746454C4B4A49504F4E4D91
:1007E00054535251585756555C5B5A59605F5E5D81
:1007F00064636261686766656C6B6A69706F6E6D71
:1008000074737271787776757C7B7A79807F7E7D60
:1008100020080008000000208004000016070008DF
:040000050800018965
:00000001FF
