:020000040800F2
:10000000000400209D01000853040008F5030008C7
:1000100051040008E50100088906000800000000FE
:100020000000000000000000000000004105000882
:10003000E701000800000000050500082906000887
:10004000B7010008B7010008B7010008B7010008B0
:10005000B7010008B7010008E9010008B70100086E
:10006000B70100083D020008B7010008B701000809
:10007000B7010008B7010008B7010008B701000880
:10008000B7010008B7010008B7010008B701000870
:10009000B7010008B7010008B7010008B701000860
:1000A000B7010008B7010008B7010008B701000850
:1000B000B7010008B7010008B7010008B701000840
:1000C000B7010008B7010008B7010008B701000830
:1000D000B7010008B7010008B7010008B701000820
:1000E00011020008B7010008B7010008B7010008B5
:1000F000B7010008B7010008B7010008B701000800
:10010000B7010008B7010008B7010008B7010008EF
:10011000B7010008B7010008B7010008B7010008DF
:10012000B7010008B7010008B7010008B7010008CF
:10013000B7010008B7010008B7010008B7010008BF
:10014000B7010008B7010008B7010008B7010008AF
:10015000B7010008B7010008B7010008B70100089F
:10016000B7010008B7010008B7010008B70100088F
:10017000B7010008B7010008B7010008B70100087F
:10018000B7010008B7010008DFF80CD000F018F83C
:1001900000480047A90600080004002006488047E0
:1001A00006480047FEE7FEE7FEE7FEE7FEE7FEE75C
:1001B000FEE7FEE7FEE7FEE72D06000889010008DE
:1001C000064C074D06E0E06840F0010394E80700A4
:1001D00098471034AC42F6D3FFF7DAFFB4060008B4
:1001E000C4060008FEE7704710B5012000F040F893
:1001F000002809D00548016881F040010160BDE890
:100200001040012000F02EB810BD00001414024070
:1002100010B54FF40054204600F02AF8002809D009
:100220000548016881F0800101602046BDE810406A
:1002300000F018B810BD00001414024010B50820DA
:1002400000F016F8002809D00548016881F4807193
:100250000160BDE81040082000F004B810BD0000A7
:10026000141402400149086070470000143C01402A
:1002700001460020024A12680A4200D0012070475D
:10028000143C014030B51B4A83790168002B2AD009
:1002900013688B431360111D0B680468A3430B6044
:1002A000017911440B68046823430B60114C083436
:1002B0002168036899432160231D19680568A943D3
:1002C00019604179102905D011440A680068024379
:1002D0000A6030BD21680268114321601968006816
:1002E0000143196030BD0079104402688A430260FE
:1002F00030BD0000003C01407FB50121052000F029
:1003000003F90121880300F00DF900F0A3F801249E
:10031000029400258DF80C508DF80F5002A9144856
:1003200000F02AF80021084600F00CF900948DF83E
:10033000045008208DF805008DF806406846FFF748
:10034000A1FF6603029602A90A4800F015F80D21E4
:10035000022000F0F7F800968DF804500C208DF87C
:1003600005008DF806406846FFF78CFF7FBD000052
:1003700000000240000802402DE9F0410022012760
:100380004FF0030C07FA02F50B682B40AB422CD15F
:10039000066853000CFA03F4A64306600E79D0F801
:1003A00000809E4046EA080606600E79012E01D0C4
:1003B000022E12D18668A64386604E79D0F8088056
:1003C0009E4046EA080686604668AE434660456839
:1003D0008E799640B6B235434560C568A543C56081
:1003E000CC799C40C3681C43C460521C102AC9D3FA
:1003F000BDE8F081FEE700002DE9FC41012120204D
:1004000000F082F84024009401208DF804000021BF
:100410008DF806108DF807008DF805100B4F694612
:100420003846FFF7A9FF8026009669463846FFF751
:10043000A3FFA500009569463846FFF79DFF0348D6
:100440001830048006800580BDE8FC81001402405D
:10045000FEE7704708B54FF4C06000F049F8062089
:100460008DF8000001208DF801008DF802008DF854
:100470000300684600F008F828208DF80000684660
:1004800000F002F808BD000030B50F23C278012546
:100490000178002A1FD0154A126802F4E062C2F502
:1004A000E062C2F30722C2F10404D3404278A240C2
:1004B00084781C401443220101F1E02181F80024DA
:1004C000007800F01F018D404009800000F1E0201D
:1004D000C0F8005130BD01F01F0085404809800080
:1004E00000F1E020C0F8805130BD00000CED00E0CC
:1004F0000249084302490860704700000000FA05FD
:100500000CED00E070470000054A002903D0116897
:10051000014311607047116881431160704700000A
:1005200030380240054A002903D0116801431160A8
:1005300070471168814311607047000044380240E1
:100540007047000010B58A07120F0F23934021F067
:1005500003040649214401F608010C689C430C6021
:100560000B68904003430B6010BD00000030014059
:100570000CB50022019200922749086840F48030AF
:1005800008604FF4A043086800F400300090019820
:10059000401C0190009810B901989842F3D1086866
:1005A000800302D50120009000E00092009801280D
:1005B00031D119484030026842F080520260174839
:1005C000026842F440420260134808300268026048
:1005D000026842F400420260026842F4A0520260E3
:1005E000021F0F4B13600A6842F080720A600A68AB
:1005F0009201FCD50B4A40F205711160016821F0AF
:1006000003010160016841F0020101600168C1F36A
:1006100081010229FAD10CBD00380240007000406F
:1006200019544007003C02407047000010B51248C2
:10063000016841F4700101601048016841F0010156
:1006400001600E4A00210832116002680C4B1A400A
:100650000260031D0B4A1A60026822F480220260C5
:1006600006480C300160FFF783FF03494FF000603C
:100670008039086010BD000088ED00E000380240BD
:10068000FFFFF6FE10300024FEE702E008C8121F4C
:1006900008C1002AFAD170477047002001E001C16B
:1006A000121F002AFBD17047FFF7A6FEFFF724FEBA
:1006B000FEE70000C406000800000020000400005F
:0406C0009A0600088E
:040000050800018965
:00000001FF
