:020000040800F2
:10000000481400209D0100086B040008A7030008A5
:100010006904000845020008D90800080000000033
:10002000000000000000000000000000F1050008D2
:10003000470200080000000011050008AD06000896
:10004000B7010008B7010008B7010008B7010008B0
:10005000B7010008B7010008B7010008B7010008A0
:10006000B7010008B7010008B7010008B701000890
:10007000B7010008B7010008B7010008B701000880
:10008000B7010008B7010008B7010008B701000870
:10009000B7010008B7010008B7010008B701000860
:1000A000B7010008B7010008B7010008B701000850
:1000B000B7010008B7010008B7010008B701000840
:1000C000B7010008B7010008B7010008B701000830
:1000D000B7010008B7010008B7010008B701000820
:1000E000B7010008B7010008B7010008B701000810
:1000F000B7010008B7010008B7010008B701000800
:10010000B7010008B7010008B7010008B7010008EF
:100110000D070008B7010008B7010008B701000883
:10012000B7010008B7010008B7010008B7010008CF
:10013000B7010008B7010008B7010008B7010008BF
:10014000B7010008B7010008B7010008B7010008AF
:10015000B7010008B7010008B7010008B70100089F
:10016000B7010008B7010008B7010008B70100088F
:10017000B7010008B7010008B7010008B70100087F
:10018000B7010008B7010008DFF80CD000F048F80C
:1001900000480047510C00084814002006488047DA
:1001A00006480047FEE7FEE7FEE7FEE7FEE7FEE75C
:1001B000FEE7FEE7FEE7FEE7B1060008890100085A
:1001C000D2B201E000F8012B491EFBD27047002299
:1001D000F6E710B513460A4604461946FFF7F0FF46
:1001E000204610BD421C10F8011B0029FBD1801ACB
:1001F000704730B50B46014600202022012409E05B
:1002000021FA02F59D4205D303FA02F5491B04FACF
:1002100002F52844151EA2F10102F1DC30BD0000F8
:10022000064C074D06E0E06840F0010394E8070043
:1002300098471034AC42F6D3FFF7AAFF840E0008AB
:10024000A40E0008FEE7704770B586B001210420B7
:1002500000F060F90121C80400F06AF900248DF86B
:10026000164001208DF8170002258DF815508DF8E5
:100270001450800204901F4E04A9304600F03EF84E
:100280008DF81450A902049104A9304600F036F804
:1002900008220B21304600F06FF808220A21304670
:1002A00000F06AF84FF4E1300090ADF80440ADF88A
:1002B0000640ADF80840ADF80C400C20ADF80A003F
:1002C0000D4C6946204600F0A1FA00F0CFF801225B
:1002D00040F22551204600F07EFA012240F22441EE
:1002E000204600F078FA0121204600F041FA06B0DD
:1002F00070BD000000080240004C00402DE9F041B4
:10030000002201274FF0030C07FA02F50B682B407F
:10031000AB422CD1066853000CFA03F4A6430660E6
:100320000E79D0F800809E4046EA080606600E79F5
:10033000012E01D0022E12D18668A64386604E7926
:10034000D0F808809E4046EA080686604668AE43BC
:10035000466045688E799640B6B235434560C568BB
:10036000A543C560CC799C40C3681C43C460521C43
:10037000102AC9D3BDE8F08110B54B07DB0E9A40B7
:10038000C90800EB8100016A0F249C40A14301626F
:10039000016A1143016210BD0246002012690A423F
:1003A00000D001207047FEE71CB50121052000F0B8
:1003B000B1F80120009000248DF804408DF807402A
:1003C00069460748FFF79AFF4FF4005000908DF8F8
:1003D00004408DF8074069460248FFF78FFF1CBDB7
:1003E000000002400008024070B504460D46294650
:1003F0002046FFF7D1FF012801D0002070BD29461B
:100400002046FFF7C9FF0128F9D0012070BD000088
:100410002DE9FC410121202000F07CF840240094CB
:1004200001208DF8040000218DF806108DF80700DA
:100430008DF805100B4F69463846FFF75FFF8026A1
:10044000009669463846FFF759FFA50000956946B2
:100450003846FFF753FF03481830048006800580B4
:10046000BDE8FC8100140240FEE7704708B54FF478
:10047000A06000F043F834208DF8000001208DF8D2
:1004800001008DF802008DF80300684600F002F8C4
:1004900008BD000030B50F23C27801250178002A7D
:1004A0001FD0154A126802F4E062C2F5E062C2F39E
:1004B0000722C2F10404D3404278A24084781C4051
:1004C0001443220101F1E02181F80024007800F0BA
:1004D0001F018D404009800000F1E020C0F800516C
:1004E00030BD01F01F0085404809800000F1E02088
:1004F000C0F8805130BD00000CED00E00249084317
:1005000002490860704700000000FA050CED00E0A9
:1005100070470000054A002903D0116801431160AB
:100520007047116881431160704700003038024005
:10053000054A002903D01168014311607047116812
:1005400081431160704700004038024070B5244B71
:10055000196801F00C01234C00291ED0224E0429F9
:100560001DD008291DD00460196801F0F0010909A7
:100570001E4A545C0168E14041601C6804F4E05488
:10058000A40A145D21FA04F484601B6803F4604338
:100590005B0BD25CD140C16070BD0460E4E70660D3
:1005A000E2E70F4A121F1168C1F38055116801F08C
:1005B0003F0135B1B6FBF1F11468C4F3881461430F
:1005C00005E0B4FBF1F11468C4F3881461431268C8
:1005D000C2F30142521C5200B1FBF2F10160C3E7C9
:1005E000083802400024F40040787D01000000201B
:1005F000704700000CB5002201920092274908685C
:1006000040F4803008604FF4A043086800F40030E4
:1006100000900198401C0190009810B901989842F0
:10062000F3D10868800302D50120009000E0009219
:100630000098012831D119484030026842F08052B8
:1006400002601748026842F44042026013480830D2
:1006500002680260026842F400420260026842F4EA
:10066000A0520260021F0F4B13600A6842F08072B2
:100670000A600A689201FCD50B4A40F205711160CC
:10068000016821F003010160016841F0020101608D
:100690000168C1F381010229FAD10CBD0038024082
:1006A0000070004019544007003C024070470000B1
:1006B00010B51248016841F47001016010480168EA
:1006C00041F0010101600E4A002108321160026808
:1006D0000C4B1A400260031D0B4A1A60026822F498
:1006E0008022026006480C300160FFF783FF034957
:1006F0004FF000608039086010BD000088ED00E018
:1007000000380240FFFFF6FE1030002470B5164D91
:1007100040F22551284600F03EF8A8B1284600F0E6
:10072000D3F8C4B2114800F066FA00281BD08288C2
:1007300001688C548188491C89B28180B1F5006FB1
:1007400002D30A4800F06FFA40F22441284600F034
:1007500022F8012807D1054800F065FA2846BDE8CF
:10076000704000F0B1B870BD004C00402C0000207B
:10077000002904D0818941F4005181817047818929
:1007800021F40051818170470246002012880A42FC
:1007900000D00120704770B5002440F66A12C1F302
:1007A000421301F01F05012606FA05F2012B0CD0B9
:1007B000022B0DD0838A1340090A8E4000883040F6
:1007C0000BB100B10124204670BD83891340F3E7CB
:1007D000038A1340F0E710B540F66A13C1F34213E1
:1007E00001F01F040121A140012B07D0022B07D0EB
:1007F00014303AB102680A43026010BD0C30F8E7C9
:100800001030F6E702688A43026010BD7FB50446E7
:100810000D46208A20F44051E88808432082A089B0
:1008200041F20C618843A9882A8911436A890243ED
:100830001143A181A08A20F44071A8890843A082B5
:100840006846FFF783FE1E48844202D01D4884425A
:1008500001D1039800E00298A189090408D500EBB2
:10086000C00101EB001029684900B0FBF1F007E07E
:1008700000EBC00101EB001029688900B0FBF1F02A
:100880006422B0FBF2F109010B096FF018056B430C
:1008900000EB8300A3891D044FF0320307D503EB5F
:1008A000C000B0FBF2F000F00700084306E003EBE5
:1008B0000010B0FBF2F000F00F00084320817FBD74
:1008C00000100140001401408088C0F30800704708
:1008D000C1F3080181807047FEE710B50446204649
:1008E000FFF7F6FF80212046FFF74EFF0028F9D0E2
:1008F00010BD70B506460D4600243046295DFFF751
:10090000ECFF641C285D0028F7D140213046FFF73A
:100910003BFF0028F9D070BD70B5164D40218022F4
:10092000AC1E8B00082808D2DFE800F02004080C79
:100930001014181C29802280238070BD21802A80F9
:10094000238070BD218022802B8070BD29802A8069
:10095000238070BD298022802B8070BD21802A8059
:100960002B8070BD29802A802B8070BD2180228041
:10097000238070BD1A1402400FB4054B10B503A9B3
:10098000044A029800F018F810BC5DF814FB00004F
:100990002D0C00081800002002E008C8121F08C132
:1009A000002AFAD170477047002001E001C1121FF0
:1009B000002AFBD1704700002DE9FF4F8BB09A460B
:1009C0000F460546002606E025280BD052460D9915
:1009D00090476D1C761C28780028F5D10FB0304662
:1009E000BDE8F08F0024A0460122604900E00443E6
:1009F00015F8013F203B02FA03F00842F7D12878AE
:100A00002E2817D115F8010F44F004042A280ED01F
:100A10006FF02F022878A0F1300109290AD808EBDD
:100A2000880102EB410100EB01086D1CF2E757F869
:100A3000048B6D1C287869283ED006DC0028CDD0B8
:100A400063280BD0642804D136E0732810D07528B1
:100A50004BD052460D999047761C85E017F8040B51
:100A60008DF8000000208DF80100E946012003E028
:100A700057F8049B4FF0FF3061074FF0000401D49A
:100A80000AE0641C44450DDA8442FADB19F80410CC
:100A90000029F6D106E0641C8442FCDB19F804103E
:100AA0000029F8D1264404E019F8010B52460D99AB
:100AB0009047641EF8D257E001CF4FF00A0B002890
:100AC00002DA40422D2102E0210504D52B218DF8C8
:100AD0002410012103E0E10705D02021F7E70DF103
:100AE000200908910CE00021F9E701CF4FF00A0B33
:100AF000F9E75946FFF77DFB01F1300209F8012DB6
:100B00000028F6D1ADEB090000F1200B600701D4FD
:100B10004FF00108D84502DDA8EB0B0000E00020F3
:100B20008046002406E009A85246005D0D999047D2
:100B3000641C761C08988442F5DB04E030205246A1
:100B40000D999047761CB8F10001A8F10108F5DC79
:100B500005E019F8010B52460D999047761CBBF140
:100B60000001ABF1010BF4DC6D1C34E70928010036
:100B700000684FF0FF3202EB4000491C084070470C
:100B80000160002141608160704781684068814256
:100B900001D10120704700207047D0E90021806812
:100BA0005140814201D1012070470020704700B5BB
:100BB00003461846FFF7E9FF08B1002000BD596859
:100BC000D868814203D11846FFF7D2FFD860196870
:100BD000D868491E084003EB8000406900BD0268E8
:100BE000C1680023521E114000EB810149698B80CE
:100BF000C1684160704700B503461846FFF7CDFF56
:100C000008B1002000BD99681869814203D11846D7
:100C1000FFF7AEFF186119681869491E084003EB19
:100C20008000406900BD01698160704770B504466D
:100C3000064DE1B22846FFF74BFE80212846FFF71C
:100C4000A3FD0028F9D0204670BD0000004C0040F4
:100C50004FF0070A22A6FFF7F7FAFFF7A5FB00F00F
:100C6000E7F8FFF7D5FB24A12B48FFF742FE2BA0A6
:100C7000FFF782FE304FDFF8C4904FF40058012197
:100C80003846FFF7B1FB01281CD100F071F82C4C5D
:100C90002C4D2DA022682968FFF76EFE2868216878
:100CA0005044401AC01D072190FBF1F201FB120ACB
:100CB00051462CA0FFF760FE5046FFF72DFE0020A6
:100CC0002060286041464846FFF78EFB0128D6D1B8
:100CD0003046FFF787FA81B2304600F08DF8CEE754
:100CE000D7E6D5C5D2C0CAC0BDE7B5DAD2BBBFC949
:100CF000B0AE41A3A10A0000D5E2CAC7D2BBB8F684
:100D0000B4AEBFDAD6D0B6CFBDD3CAD5BBD8CFD458
:100D1000CAB5D1E90A000000004C0040BBB6D3AD13
:100D2000CAB9D3C3D2B0BBF053544D3332BFAAB704
:100D3000A2B0E50A0A0A0A000000024000080240C8
:100D4000140000201000002041436F756E7465721E
:100D50003A2025640A42436F756E7465723A202505
:100D6000640A0000636F756E74203D2025640A00DC
:100D700010B51548FFF71BFF002823D083880268B1
:100D80000021D154114B84880FE00268525C412A43
:100D900002D0422A04D006E01A68521C1A6002E00F
:100DA0005A68521C5A60491C89B28C42EDD80268BC
:100DB00040F2011106A0FFF7DFFDBDE81040024838
:100DC000FFF70DBF10BD00002C0000201000002018
:100DD0003C3C2D51554555452D44454255472D3EEA
:100DE0003E205B25645DBDD3CAD5B5BDB5C4CAFD83
:100DF000BEDDA3BA25730A0070B505460E46002471
:100E00000CE00A48FFF7F7FE00280ED00268295DC3
:100E100011558288521C8280641CE4B2B442F0D323
:100E2000BDE870400148FFF7FEBE70BD2C000020F9
:100E30002DE9F0410024124D002028606860A86070
:100E4000E860022105F11000FFF79AFE05F1100697
:100E500005F12C074FF4006807EBC42045F8340077
:100E600006EB840105EBC400486155F834004146A7
:100E7000FFF7ADF9641C022CEED3BDE8F081000051
:100E80001C000020A40E0008000000201C00000030
:100E900098090008C00E00081C0000202C14000057
:100EA000A809000800000000010203040102030475
:100EB0000607080900000000000000000000000014
:040000050800018965
:00000001FF
