:020000040800F2
:10000000380400209D010008D5030008D103000832
:10001000D303000887020008A10C000800000000BC
:10002000000000000000000000000000F1090008CE
:10003000890200080000000079040008AD0A0008E9
:10004000B7010008B7010008B7010008B7010008B0
:10005000B7010008B7010008B7010008B7010008A0
:10006000B7010008B7010008B7010008B701000890
:10007000B7010008B7010008B7010008B701000880
:10008000B7010008B7010008B7010008B701000870
:10009000B7010008B7010008B7010008B701000860
:1000A000B7010008B7010008B7010008B701000850
:1000B000B7010008B7010008B7010008B701000840
:1000C000B7010008B7010008B7010008B701000830
:1000D000B70100080D0B0008B7010008B7010008C0
:1000E000B7010008B7010008B7010008B701000810
:1000F000B7010008B7010008B7010008B701000800
:10010000B7010008B7010008B7010008B7010008EF
:10011000B7010008B7010008B7010008B7010008DF
:10012000B7010008B7010008B7010008B7010008CF
:10013000B7010008B7010008B7010008B7010008BF
:10014000B7010008B7010008B7010008B7010008AF
:10015000B7010008B7010008B7010008B70100089F
:10016000B7010008B7010008B7010008B70100088F
:10017000B7010008B7010008B7010008B70100087F
:10018000B7010008B7010008DFF80CD000F04AF80A
:1001900000480047C90F000838040020064880477F
:1001A00006480047FEE7FEE7FEE7FEE7FEE7FEE75C
:1001B000FEE7FEE7FEE7FEE7B10A00088901000856
:1001C0002DE9F05F0546002092469B46884606468C
:1001D000814640241BE0284641464746224600F01F
:1001E00042F853465A46C01A914110D31146184658
:1001F000224600F029F82D1A67EB01084F462246E7
:100200000120002100F020F817EB00094E41201ECC
:10021000A4F10104DFDC484631462A464346BDE8E6
:10022000F09F0000064C074D06E0E06840F0010337
:1002300094E8070098471034AC42F6D3FFF7A8FFC4
:10024000DC100008FC100008202A04DB203A00FA29
:1002500002F1002070479140C2F1200320FA03F31D
:10026000194390407047202A04DB203A21FA02F01B
:100270000021704721FA02F3D040C2F120029140E0
:10028000084319467047FEE77047000070B586B016
:100290000121084600F0F2F80121102000F0FCF8DE
:1002A00000248DF8164001208DF8170002258DF8E6
:1002B00015508DF81450400204901C4E04A930468D
:1002C00000F038F88DF814506902049104A9304602
:1002D00000F030F807220A21304600F069F80722C2
:1002E0000921304600F064F84FF4E1300090ADF899
:1002F0000440ADF80640ADF80840ADF80C400C20C5
:10030000ADF80A000A4C6946204600F063FC00F094
:1003100062F8012240F22551204600F040FC012104
:10032000204600F009FC06B070BD0000000002404D
:10033000001001402DE9F041002201274FF0030C8D
:1003400007FA02F50B682B40AB422CD1066853002C
:100350000CFA03F4A64306600E79D0F800809E40A4
:1003600046EA080606600E79012E01D0022E12D14F
:100370008668A64386604E79D0F808809E4046EA9B
:10038000080686604668AE43466045688E799640AA
:10039000B6B235434560C568A543C560CC799C407D
:1003A000C3681C43C460521C102AC9D3BDE8F08145
:1003B00010B54B07DB0E9A40C90800EB8100016ABB
:1003C0000F249C40A1430162016A1143016210BDE8
:1003D000FEE7FEE7704708B54FF4A06000F042F872
:1003E00025208DF8000001208DF801008DF8020015
:1003F0008DF80300684600F001F808BD30B50F2302
:10040000C27801250178002A1FD0154A126802F42B
:10041000E062C2F5E062C2F30722C2F10404D340F5
:100420004278A24084781C401443220101F1E0216B
:1004300081F80024007800F01F018D404009800001
:1004400000F1E020C0F8005130BD01F01F008540F0
:100450004809800000F1E020C0F8805130BD000064
:100460000CED00E0024908430249086070470000B3
:100470000000FA050CED00E070470000054A002975
:1004800003D0116801431160704711688143116006
:100490007047000030380240054A002903D0116837
:1004A000014311607047116881431160704700007B
:1004B0004438024070B5244B196801F00C01234CFC
:1004C00000291ED0224E04291DD008291DD0046009
:1004D000196801F0F00109091E4A545C0168E14005
:1004E00041601C6804F4E054A40A145D21FA04F489
:1004F00084601B6803F460435B0BD25CD140C16035
:1005000070BD0460E4E70660E2E70F4A121F11685D
:10051000C1F38055116801F03F0135B1B6FBF1F12F
:100520001468C4F38814614305E0B4FBF1F1146866
:10053000C4F3881461431268C2F30142521C520092
:10054000B1FBF2F10160C3E7083802400024F40077
:1005500040787D0100000020002904D0018841F08E
:10056000400101807047018821F0400101807047FF
:100570002DE9F04104460F4615460F4840260680F7
:10058000032000F015F9C7F3074000F011F9C7F395
:10059000072000F00DF9F8B200F00AF904E0FF209E
:1005A00000F006F904F8010B6D1EADB2F7D2024857
:1005B000801E0680BDE8F0811A1802402DE9F04740
:1005C00006460D46E8B24142CFB2140A02F0FF09D6
:1005D0004FF48078002812D0E8B24042C0B205EB58
:1005E000000A34B3D01B80B2040A00F0FF093A4677
:1005F0002946304600F054F855463E4439E074B977
:1006000029463046BDE8F04700F04AB84246294640
:10061000304600F045F805F5807506F58076641ED5
:10062000E4B2F3D24A4629463046BDE8F04700F02E
:1006300037B8B9450ED9A9EB0700C4B23A462946E6
:10064000304600F02DF85146F0192246BDE8F0473B
:1006500000F026B829463046BDE8F04700F020B843
:1006600042462946304600F01BF805F5807506F530
:100670008076641EE4B2F3D2B9F1000F06D04A4688
:1006800029463046BDE8F04700F00AB8BDE8F087DB
:1006900010B500F0F3F8BDE8104000F05BB90000C1
:1006A0002DE9F04105460F46144600F0D9F81348ED
:1006B00040260680022000F07BF8C7F3074000F0D8
:1006C00077F8C7F3072000F073F8F8B200F070F87D
:1006D000B000844208D9044609A000F0E3FA03E020
:1006E000287800F065F86D1C641EA4B2F8D20348A7
:1006F000801E0680BDE8F04100F092B81A18024052
:100700003C3C2D464C4153482D4552524F522D3EB4
:100710003E205350495F464C4153485F50616765E6
:10072000577269746520746F6F206C617267652100
:100730000A00000070B50D48402404809F2000F09E
:1007400037F8FF2000F034F80546FF2000F030F8BD
:100750000646FF2000F02CF801460448801E048065
:10076000280440EA0620084370BD00001A18024021
:1007700070B5044600F074F800F052F80B484025BC
:100780000580202000F014F8C4F3074000F010F8B2
:10079000C4F3072000F00CF8E0B200F009F80348B9
:1007A000801E0580BDE8704000F03AB81A1802407B
:1007B0002DE9F0410746184C4FF480552560174E3F
:1007C00009E02068411E216005D2002000F0F0F809
:1007D000C0B2BDE8F0810221304600F093F8002855
:1007E000EFD03946304600F096F8256008E02168E1
:1007F0004A1E226004D2012000F0DAF8C0B2E8E715
:100800000121304600F07EF80028F0D0304600F09C
:1008100080F8C0B2DDE70000200000200030014079
:1008200070B50D48402505800520FFF7C1FF0B4C32
:10083000A8012060FF20FFF7BBFF21684A1E22604D
:1008400004D2BDE87040042000F0B2B8C007F1D176
:100850000148801E058070BD1A180240200000204B
:1008600010B50548402404800620FFF7A1FF024888
:10087000801E048010BD00001A1802401CB5012122
:100880004220FFF7FBFD01210803FFF705FE1B4C8B
:10089000052203212046FFF78BFD05220421204677
:1008A000FFF786FD052211462046FFF781FD08214E
:1008B000009102218DF805108DF8041000218DF8AB
:1008C00006108DF8071069462046FFF733FD10210A
:1008D000009169462046FFF72DFD202100916946D1
:1008E0002046FFF727FD4020009001208DF80400EE
:1008F00069460348FFF71EFD1CBD000000040240CE
:10090000001802400246002012890A4200D001204D
:100910007047808970478181704730B5028802F442
:1009200041530A884C88CD8822438C882C4322432B
:100930000C8922434C8922438C892243CC8922434F
:100940001A430280828B22F400628283098A018228
:1009500030BD000010B586B013494020088000204B
:10096000ADF804004FF48271ADF80610ADF8080040
:100970000221ADF80A100121ADF80C104902ADF8C2
:100980000E10ADF81000ADF812000720ADF81400FD
:10099000064C01A92046FFF7C0FF01212046FFF7C2
:1009A000DBFD06B010BD0000181802400030014009
:1009B00010B5014602A000F075F9002010BD00003E
:1009C0003C3C2D464C4153482D4552524F522D3EF2
:1009D0003E2053504920B5C8B4FDB3ACCAB121651F
:1009E00072726F72436F6465203D2025640A0000B7
:1009F000704700000CB50022019200922749086858
:100A000040F4803008604FF4A043086800F40030E0
:100A100000900198401C0190009810B901989842EC
:100A2000F3D10868800302D50120009000E0009215
:100A30000098012831D119484030026842F08052B4
:100A400002601748026842F44042026013480830CE
:100A500002680260026842F400420260026842F4E6
:100A6000A0520260021F0F4B13600A6842F08072AE
:100A70000A600A689201FCD50B4A40F205711160C8
:100A8000016821F003010160016841F00201016089
:100A90000168C1F381010229FAD10CBD003802407E
:100AA0000070004019544007003C024070470000AD
:100AB00010B51248016841F47001016010480168E6
:100AC00041F0010101600E4A002108321160026804
:100AD0000C4B1A400260031D0B4A1A60026822F494
:100AE0008022026006480C300160FFF783FF034953
:100AF0004FF000608039086010BD000088ED00E014
:100B000000380240FFFFF6FE1030002410B5094CFB
:100B100040F22551204600F022F8002808D0204657
:100B200000F0B6F8C1B22046BDE8104000F0B4B8FD
:100B300010BD000000100140002904D0818941F45B
:100B4000005181817047818921F400518181704772
:100B50000246002012880A4200D00120704770B57A
:100B6000002440F66A12C1F3421301F01F0501266A
:100B700006FA05F2012B0CD0022B0DD0838A13400C
:100B8000090A8E40008830400BB100B10124204694
:100B900070BD83891340F3E7038A1340F0E710B573
:100BA00040F66A13C1F3421301F01F040121A14072
:100BB000012B07D0022B07D014303AB102680A4348
:100BC000026010BD0C30F8E71030F6E702688A4387
:100BD000026010BD7FB504460D46208A20F44051C6
:100BE000E88808432082A08941F20C618843A988E3
:100BF0002A8911436A8902431143A181A08A20F402
:100C00004071A8890843A0826846FFF753FC1E483C
:100C1000844202D01D48844201D1039800E002982A
:100C2000A189090408D500EBC00101EB0010296877
:100C30004900B0FBF1F007E000EBC00101EB001050
:100C400029688900B0FBF1F06422B0FBF2F10901E0
:100C50000B096FF018056B4300EB8300A3891D049B
:100C60004FF0320307D503EBC000B0FBF2F000F009
:100C70000700084306E003EB0010B0FBF2F000F0C1
:100C80000F00084320817FBD001001400014014087
:100C90008088C0F308007047C1F308018180704765
:100CA000FEE700000FB4054B10B503A9044A0298F3
:100CB00000F018F810BC5DF814FB0000A50F000848
:100CC0002400002002E008C8121F08C1002AFAD13F
:100CD00070477047002001E001C1121F002AFBD1BC
:100CE000704700002DE9FF4F8DB09B460F4604462C
:100CF000002606E025280BD05A460F999047641C21
:100D0000761C20780028F5D111B03046BDE8F08F70
:100D10000025A8460122984900E0054314F8013F48
:100D2000203B02FA03F00842F7D120782E2817D191
:100D300014F8010F45F004052A280ED06FF02F0299
:100D40002078A0F1300109290AD808EB880102EBCC
:100D5000410100EB0108641CF2E757F8048B641CA6
:100D600020786C280DD004DC4C2812D06A2811D1D0
:100D700004E074280DD07A280CD10AE045F400155F
:100D800007E0617845F48015814202D1641C05F5C5
:100D90008015641C2278692A45D008DC002AB3D06B
:100DA000582A69D0632A10D0642A08D13BE0702AFF
:100DB00067D0732A13D0752A5CD0782A5CD010468D
:100DC0005A460F999047761CD3E017F8040B8DF81C
:100DD000000000208DF80100E946012003E057F8EB
:100DE000049B4FF0FF3069074FF0000501D40AE083
:100DF0006D1C45450DDA8542FADB19F8051000290E
:100E0000F6D106E06D1C8542FCDB19F805100029BF
:100E1000F8D12E4404E019F8010B5A460F99904777
:100E20006D1EF8D2A5E00A200021CDE90801C5F326
:100E3000025002280DD001CFC117031E71F100032B
:100E40000DDA4FF0000CD0EB0C006CEB01012D2300
:100E500008E0FF1D27F00707F7E80201EDE72B0583
:100E600004D52B238DF8283001233BE0EB0739D044
:100E70002023F7E70A2000E010200021CDE9080137
:100E800007E01020002145F00405CDE908014FF0EE
:100E90000808C5F3025002280FD001CF00214FF0FF
:100EA000000A2B071FD5702A0DD0DDE908C38CF08E
:100EB000100C5CEA030C0CD015E0FF1D27F00707AF
:100EC000F7E80201EBE740228DF828204FF0010AF5
:100ED0000BE050EA010306D030238DF828308DF85E
:100EE000292002239A46582A04D024A20DF1200971
:100EF0000B9209E026A2F9E7DDE90823FFF760F984
:100F00000B9B9B5C09F8013D50EA0102F4D1ADEB6B
:100F1000090020300890680701D44FF001080899B3
:100F2000884502DDA8EB010000E000208046002596
:100F300006E00AA85A46405D0F9990476D1C761C42
:100F40005545F6DB04E030205A460F999047761C51
:100F5000B8F10001A8F10108F5DC05E019F8010B72
:100F60005A460F999047761C0899481E0890002908
:100F7000F4DC641CC5E6000009280100303132337E
:100F800034353637383961626364656600000000C5
:100F900030313233343536373839414243444546AF
:100FA0000000000070B50446064DE1B22846FFF788
:100FB00073FE80212846FFF7CBFD0028F9D020469C
:100FC00070BD000000100140FFF760F9FFF760FB03
:100FD00018A0FFF767FEFFF7ADFBC1B21CA0FFF73B
:100FE00061FE20A0FFF75EFE0020FFF7C1FB20A0FE
:100FF000FFF758FE21A0FFF755FE234923A0FFF776
:1010000051FE0E220A212048FFF7D8FA24A0FFF74C
:1010100049FE26A0FFF746FE0E220A212648FFF7CA
:10102000A7FA254925A0FFF73DFE29A0FFF73AFEC4
:10103000FEE70000D5E2CAC7D2BBB8F6464C415322
:1010400048B6C1D0B4CAB5D1E9CAB5D1E90A0000E1
:101050000D0A466C617368204944203D2030782594
:10106000580D0A000D0ABFAACABCB2C1B3FD0000E8
:101070000D0AB2C1B3FDCDEAB3C900000D0ABFAA83
:10108000CABCD0B4C8EB0000100000200D0AD0B4D8
:10109000C8EBB5C4CAFDBEDDA3BA257300000000CD
:1010A0000D0AD0B4C8EBCDEAB3C900000D0ABFAA3F
:1010B000CABCB6C1C8A10000280000200D0AB6C1F4
:1010C000C8A1B5C4CAFDBEDDA3BA257300000000E7
:1010D0000D0AB6C1C8A1CDEAB3C90000FC100008D2
:1010E0000000002028000000C40C000824110008A3
:1010F0002800002010040000D40C000800000000AC
:10110000010203040102030406070809CAC0BDE77F
:10111000B5DAD2BBBFC9B0AEA3A1000000A00000E9
:0411200000000000CB
:040000050800018965
:00000001FF
