:020000040800F2
:10000000200700209D010008E30A0008670300089C
:10001000E10A000811020008491000080000000071
:10002000000000000000000000000000710D00084A
:100030001302000800000000890B0008310E0008C0
:10004000B7010008B7010008B7010008B7010008B0
:10005000B7010008B7010008B7010008B7010008A0
:10006000B7010008B7010008B7010008B701000890
:10007000B7010008B7010008B7010008B701000880
:10008000B7010008B7010008B7010008B701000870
:10009000B7010008B7010008B7010008B701000860
:1000A000B7010008B7010008B7010008B701000850
:1000B000B7010008B7010008B7010008B701000840
:1000C000B7010008B7010008B7010008B701000830
:1000D000B7010008910E0008B7010008B701000839
:1000E000B7010008B7010008B7010008B701000810
:1000F000B7010008B7010008B7010008B701000800
:10010000B7010008B7010008B7010008B7010008EF
:10011000B7010008B7010008B7010008B7010008DF
:10012000B7010008B7010008B7010008B7010008CF
:10013000B7010008B7010008B7010008B7010008BF
:10014000B7010008B7010008B7010008B7010008AF
:10015000B7010008B7010008B7010008B70100089F
:10016000B7010008B7010008B7010008B70100088F
:10017000B7010008B7010008B7010008B70100087F
:10018000B7010008B7010008DFF80CD000F02EF826
:1001900000480047F5120008200700200648804765
:1001A00006480047FEE7FEE7FEE7FEE7FEE7FEE75C
:1001B000FEE7FEE7FEE7FEE7350E000889010008CE
:1001C00030B50B46014600202022012409E021FA27
:1001D00002F59D4205D303FA02F5491B04FA02F524
:1001E0002844151EA2F10102F1DC30BD064C074D7A
:1001F00006E0E06840F0010394E8070098471034F7
:10020000AC42F6D3FFF7C4FFCC130008EC13000890
:10021000FEE7704770B586B00121084600F0B6FCD5
:100220000121102000F0CEFC00248DF816400120A2
:100230008DF8170002258DF815508DF814504002E6
:1002400004901C4E04A9304600F038F88DF8145084
:100250006902049104A9304600F030F807220A210F
:10026000304600F069F807220921304600F064F8B2
:100270004FF4E1300090ADF80440ADF80640ADF821
:100280000840ADF80C400C20ADF80A000A4C694655
:10029000204600F073FE00F025FC012240F22551BB
:1002A000204600F050FE0121204600F019FE06B065
:1002B00070BD000000000240001001402DE9F04137
:1002C000002201274FF0030C07FA02F50B682B40C0
:1002D000AB422CD1066853000CFA03F4A643066027
:1002E0000E79D0F800809E4046EA080606600E7936
:1002F000012E01D0022E12D18668A64386604E7967
:10030000D0F808809E4046EA080686604668AE43FC
:10031000466045688E799640B6B235434560C568FB
:10032000A543C560CC799C40C3681C43C460521C83
:10033000102AC9D3BDE8F08110B54B07DB0E9A40F7
:10034000C90800EB8100016A0F249C40A1430162AF
:10035000016A1143016210BD0246002012690A427F
:1003600000D001207047FEE7002904D0018841F445
:10037000806101807047018821F4806101807047AD
:10038000034600209A8A1B8B1B041A4322F07F42EB
:10039000914300D101207047C943818270470029F1
:1003A00004D0018841F0010101807047018821F0EB
:1003B00001010180704700002DE9F74F0546144602
:1003C000634F4FF42048C7F804804FF40036DFF83D
:1003D000849108E07868411E796004D2BDE8FE4F40
:1003E000092000F0EDBA3146484600F035FA002801
:1003F000F0D10121484600F017FA4FF4805AC7F8AF
:1004000004A0554E08E07868411E796004D2BDE82A
:10041000FE4F0A2000F0D4BA31464846FFF7B0FF3D
:100420000028F0D039780022484600F0BEFAC7F81C
:1004300004A0DFF828B108E07868411E796004D292
:10044000BDE8FE4F0B2000F0BBBA59464846FFF707
:1004500097FF0028F0D001214846FFF7A0FF48464B
:10046000019900F0ABFAC7F804A0DFF8F0B00BF187
:10047000020B08E07868401E786004D2BDE8FE4FA9
:100480000C2000F09DBA59464846FFF779FF002836
:10049000F0D00121484600F0C7F9C7F804A008E0F1
:1004A0007868411E796004D2BDE8FE4F0D2000F04F
:1004B00087BA31464846FFF763FF0028F0D0397805
:1004C0000122484600F071FAC7F804A0224E761CBB
:1004D00008E07868411E796004D2BDE8FE4F0E2026
:1004E00000F06EBA31464846FFF74AFF0028F0D0C8
:1004F00024E0012C07D100214846FFF735FF0121F8
:10050000484600F09DF9C7F80480134E3F3608E0D6
:100510007B68581E786004D2BDE8FE4F032000F0CF
:100520004FBA31464846FFF72BFF0028F0D0484627
:1005300000F038FA05F8010B641EA4B2002CD8D1E3
:1005400001214846FFF710FF0120BDE8FE8F0000A3
:100550001400002000540040010003008200070046
:100560002DE9F04105460C4604F00700C0F10807EC
:10057000C2F3C70602F00708002811D09EB3D01BB3
:10058000C0F3C70600F00708F7B33A4621462846ED
:1005900000F05CF800F0F0F8E019C4B23D4437E038
:1005A00096B942462146284600F050F8BDE8F04191
:1005B00000F0E2B808222146284600F047F800F093
:1005C000DBF80834E4B20835761EF6B2F2D2B8F1A0
:1005D000000F2CD042462146284600F037F8BDE8EF
:1005E000F04100F0C9B842462146284600F02EF8F6
:1005F000BDE8F04100F0C0B808222146284600F0CE
:1006000025F800F0B9F800E002E00834E4B208355B
:10061000761EF6B2F0D2B8F1000F08D0424621465D
:10062000284600F013F8BDE8F04100F0A5B8BDE899
:10063000F081000010B500F0C9F800F085F902491A
:10064000A020088010BD0000140000202DE9F04714
:1006500005460F461446444E4FF4204070604FF458
:100660000038DFF808A108E07068411E716004D20C
:10067000BDE8F047042000F0A3B94146504600F021
:10068000EBF80028F0D10121504600F0CDF84FF4EE
:100690008059C6F80490DFF8D88008E07068411EE1
:1006A000716004D2BDE8F047052000F089B94146E9
:1006B0005046FFF765FE0028F0D031780022504602
:1006C00000F073F9C6F80490DFF8A88008E07068BD
:1006D000411E716004D2BDE8F047062000F070B9F9
:1006E00041465046FFF74CFE0028F0D039465746A9
:1006F000384600F063F9C6F80490DFF8788008F116
:10070000020808E07068401E706004D2BDE8F0473F
:10071000072000F055B941463846FFF731FE002862
:10072000F0D016E02978384600F048F96D1CC6F87C
:10073000049008E07068411E716004D2BDE8F04783
:10074000082000F03DB941463846FFF719FE002861
:10075000F0D0641EE4B2E5D20121384600F070F812
:100760000120BDE8F0870000140000200054004084
:10077000010003008200070038B500200090104DF2
:10078000104C0121284600F04FF81421284600F0B3
:1007900001F9009021780022284600F006F9142182
:1007A000284600F0F7F88007EBD507492846FFF701
:1007B000F3FD2846BDE83840012100F041B80000B3
:1007C0000054004014000020000400101CB501215A
:1007D000480500F0E9F90121022000F0D7F9114C99
:1007E000042208212046FFF7A7FD04220921204604
:1007F000FFF7A2FDA115009102218DF804108DF8DC
:10080000051001218DF8061000218DF807106946AA
:100810002046FFF753FD6115009169462046FFF71A
:100820004DFD1CBD00040240002904D0018841F4A4
:10083000807101807047018821F4807101807047C8
:10084000002904D0018841F40071018070470188BB
:1008500021F40071018070470CB50246002000921F
:100860000A0F019221F07F41019A002A03D0009AD9
:100870001432009203E0090C009A18320092009A98
:1008800012680A4200D001200CBD00007FB504466A
:100890000D46A08820F03F06684600F0A1F90298B6
:1008A0002749B0FBF1F189B20E43A680228822F0DD
:1008B00001022280234B2A689A4209D85200B0FBD9
:1008C000F2F080B2042800D20420491C218423E0E5
:1008D000EB88A3F53F46FF3E0BD002EBC20303EBD0
:1008E0000212B0FBF2F080B240F48040020506D064
:1008F00007E002EB4202B0FBF2F080B2F6E740F014
:10090000010040F400404FF4967251434FF47A7264
:10091000B1FBF2F1491C2184A083208840F0010042
:10092000208020884FF6F5310840A9886A89114354
:1009300001432180A8892989084320817FBD0000C7
:1009400040420F00A08601001FB50020ADF8040052
:100950004BF6FF70ADF806000A20ADF808004FF422
:100960008060ADF80A000001ADF80C000748009067
:10097000074C69462046FFF789FF01212046FFF713
:100980000EFD01212046FFF7EFFC1FBD801A060077
:100990000054004008B5009000980844009000986A
:1009A000008808BD008AC0B27047002A02D041F01A
:1009B000010101E001F0FE010182704701827047F0
:1009C00010B5014602A000F087FB002010BD00001A
:1009D0003C3C2D454550524F4D2D4552524F522DC6
:1009E0003E3E2049324320E7AD89E5BE85E8B68525
:1009F000E697B6216572726F72436F6465203D2081
:100A000025640A001CB50121052000F0BFF8012073
:100A1000009000248DF804408DF80740694607488F
:100A2000FFF74CFC4FF4005000908DF804408DF817
:100A3000074069460248FFF741FC1CBD0000024028
:100A40000008024070B504460D4629462046FFF7CF
:100A500083FC012801D0002070BD29462046FFF705
:100A60007BFC0128F9D0012070BD00002DE9FC417C
:100A70000121202000F08AF84024009401208DF804
:100A8000040000218DF806108DF807008DF8051080
:100A90000B4F69463846FFF711FC802600966946E1
:100AA0003846FFF70BFCA500009569463846FFF76E
:100AB00005FC03481830048006800580BDE8FC81F1
:100AC0000014024010B50022044C02E08354521C72
:100AD00092B2A35C002BF9D10A8010BD2002002045
:100AE000FEE7704708B54FF4A06000F043F82520FA
:100AF0008DF8000001208DF801008DF802008DF8BE
:100B00000300684600F002F808BD000030B50F236E
:100B1000C27801250178002A1FD0154A126802F414
:100B2000E062C2F5E062C2F30722C2F10404D340DE
:100B30004278A24084781C401443220101F1E02154
:100B400081F80024007800F01F018D4040098000EA
:100B500000F1E020C0F8005130BD01F01F008540D9
:100B60004809800000F1E020C0F8805130BD00004D
:100B70000CED00E00249084302490860704700009C
:100B80000000FA050CED00E070470000054A00295E
:100B900003D01168014311607047116881431160EF
:100BA0007047000030380240054A002903D0116820
:100BB0000143116070471168814311607047000064
:100BC00040380240054A002903D0116801431160F2
:100BD000704711688143116070470000443802403B
:100BE00070B5244B196801F00C01234C00291ED06C
:100BF000224E04291DD008291DD00460196801F077
:100C0000F00109091E4A545C0168E14041601C681A
:100C100004F4E054A40A145D21FA04F484601B680F
:100C200003F460435B0BD25CD140C16070BD0460D3
:100C3000E4E70660E2E70F4A121F1168C1F380552E
:100C4000116801F03F0135B1B6FBF1F11468C4F34E
:100C50008814614305E0B4FBF1F11468C4F388140F
:100C600061431268C2F30142521C5200B1FBF2F11F
:100C70000160C3E7083802400024F40040787D0199
:100C80000000002070B514A000F026FA1A4C0021D4
:100C90001A482288FFF790FB0020184A2188A2F505
:100CA00080730EE0145C1D5CAC4208D0134914A0A4
:100CB00000F012FA14A000F00FFA002070BD401CE2
:100CC00080B28842EED30D490DA000F005FA1DA0B8
:100CD00000F002FA012070BD3C3C2D454550524FBA
:100CE0004D2D494E464F2D3E3EB6C1B3F6B5C4CA52
:100CF000FDBEDD0A000000001000002020010020E1
:100D000025730D0A000000003C3C2D454550524F14
:100D10004D2D4552524F522D3E3E20B4EDCEF33A6A
:100D200049324320454550524F4DD0B4C8EBD3EB28
:100D3000B6C1B3F6B5C4CAFDBEDDB2BBD2BBD6C226
:100D40000A0000003C3C2D454550524F4D2D494E68
:100D5000464F2D3E3E4932432841543234433032CF
:100D600029B6C1B2E2CAD4B3C9B9A60A00000000CC
:100D700070478154704700000CB500220192009228
:100D80002749086840F4803008604FF4A0430868A1
:100D900000F4003000900198401C0190009810B9B8
:100DA00001989842F3D10868800302D50120009091
:100DB00000E000920098012831D1194840300268C3
:100DC00042F0805202601748026842F440420260DA
:100DD0001348083002680260026842F40042026070
:100DE000026842F4A0520260021F0F4B13600A68AF
:100DF00042F080720A600A689201FCD50B4A40F208
:100E000005711160016821F003010160016841F082
:100E1000020101600168C1F381010229FAD10CBD10
:100E2000003802400070004019544007003C024066
:100E30007047000010B51248016841F4700101606C
:100E40001048016841F0010101600E4A002108329A
:100E5000116002680C4B1A400260031D0B4A1A60B5
:100E6000026822F48022026006480C300160FFF71D
:100E700083FF03494FF000608039086010BD000017
:100E800088ED00E000380240FFFFF6FE103000243D
:100E900070B5104E40F22551304600F034F800286D
:100EA00016D0304600F0C8F8C5B20B4C29460B48A6
:100EB0002288FFF75EFF21880020491C8AB207497B
:100EC0002280885429463046BDE8704000F0B8B80A
:100ED00070BD000000100140120000202002002020
:100EE000002904D0818941F40051818170478189B2
:100EF00021F40051818170470246002012880A4285
:100F000000D00120704770B5002440F66A12C1F38A
:100F1000421301F01F05012606FA05F2012B0CD041
:100F2000022B0DD0838A1340090A8E40008830407E
:100F30000BB100B10124204670BD83891340F3E753
:100F4000038A1340F0E710B540F66A13C1F3421369
:100F500001F01F040121A140012B07D0022B07D073
:100F600014303AB102680A43026010BD0C30F8E751
:100F70001030F6E702688A43026010BD7FB5044670
:100F80000D46208A20F44051E88808432082A08939
:100F900041F20C618843A9882A8911436A89024376
:100FA0001143A181A08A20F44071A8890843A0823E
:100FB0006846FFF715FE1E48844202D01D48844251
:100FC00001D1039800E00298A189090408D500EB3B
:100FD000C00101EB001029684900B0FBF1F007E007
:100FE00000EBC00101EB001029688900B0FBF1F0B3
:100FF0006422B0FBF2F109010B096FF018056B4395
:1010000000EB8300A3891D044FF0320307D503EBE7
:10101000C000B0FBF2F000F00700084306E003EB6D
:101020000010B0FBF2F000F00F00084320817FBDFC
:1010300000100140001401408088C0F30800704790
:10104000C1F3080181807047FEE7000010B50B492D
:101050000B48FFF737FD0BA000F03EF8084911A040
:1010600000F03AF80548002102880548FFF778FAB1
:101070000EA000F031F8012010BD0000100000208B
:10108000200000203C3C2D454550524F4D2D494EEF
:10109000464F2D3E3ED0B4C8EBB5C4CAFDBEDD0AF6
:1010A0000000000025730D0A000000003C3C2D45A7
:1010B0004550524F4D2D494E464F2D3E3E493243ED
:1010C000284154323443303229B6C1B2E2CAD4B3D3
:1010D000C9B9A60A000000000FB4054B10B503A95A
:1010E000044A029800F018F810BC5DF814FB0000E8
:1010F000D11200081C00002002E008C8121F08C11D
:10110000002AFAD170477047002001E001C1121F88
:10111000002AFBD1704700002DE9FF4F8BB09A46A3
:101120000F460546002606E025280BD052460D99AD
:1011300090476D1C761C28780028F5D10FB03046FA
:10114000BDE8F08F0024A0460122604900E004437E
:1011500015F8013F203B02FA03F00842F7D1287846
:101160002E2817D115F8010F44F004042A280ED0B8
:101170006FF02F022878A0F1300109290AD808EB76
:10118000880102EB410100EB01086D1CF2E757F802
:10119000048B6D1C287869283ED006DC0028CDD051
:1011A00063280BD0642804D136E0732810D075284A
:1011B0004BD052460D999047761C85E017F8040BEA
:1011C0008DF8000000208DF80100E946012003E0C1
:1011D00057F8049B4FF0FF3061074FF0000401D433
:1011E0000AE0641C44450DDA8442FADB19F8041065
:1011F0000029F6D106E0641C8442FCDB19F80410D7
:101200000029F8D1264404E019F8010B52460D9943
:101210009047641EF8D257E001CF4FF00A0B002828
:1012200002DA40422D2102E0210504D52B218DF860
:101230002410012103E0E10705D02021F7E70DF19B
:10124000200908910CE00021F9E701CF4FF00A0BCB
:10125000F9E75946FEF7B4FF01F1300209F8012D14
:101260000028F6D1ADEB090000F1200B600701D496
:101270004FF00108D84502DDA8EB0B0000E000208C
:101280008046002406E009A85246005D0D9990476B
:10129000641C761C08988442F5DB04E0302052463A
:1012A0000D999047761CB8F10001A8F10108F5DC12
:1012B00005E019F8010B52460D999047761CBBF1D9
:1012C0000001ABF1010BF4DC6D1C34E709280100CF
:1012D00070B50446064DE1B22846FFF7B1FE802105
:1012E0002846FFF709FE0028F9D0204670BD00000F
:1012F00000100140FFF7BAFBFFF784FBFEF78AFFFF
:101300001A4D40272F808026AC1E26804FF480780F
:10131000A4F8008016A0FFF7DFFE1FA0FFF7DCFE99
:10132000FFF788F927802680A5F80080DFF89490E1
:10133000DFF894B04FF4005A01214846FFF782FBD2
:10134000012805D1FFF782FE2F802680A5F80080B6
:1013500051465846FFF776FB0128EDD1FFF792FC86
:1013600027802E80A4F80080E6E700001A140240CF
:101370000D0A20BBB6D3ADCAB9D3C3D2B0BBF020DF
:101380002053544D3332204634303720BFAAB7A201
:10139000B0E5A1A30D0A00000D0A20D5E2CAC7D20C
:1013A000BBB8F6493243CDE2C9E828415432344350
:1013B000303229B6C1D0B4B2E2CAD4C0FDB3CC2019
:1013C0000D0A00000000024000080240EC13000873
:1013D0000000002020000000F81000080C14000895
:1013E0002000002000070000081100080000000095
:1013F00001020304010203040607080900000000BB
:0C1400000000000000A000000000000040
:040000050800018965
:00000001FF
