:020000040800F2
:10000000200500209D010008A70600088F030008B6
:10001000A506000811020008CD0C00080000000031
:10002000000000000000000000000000D9090008E6
:1000300031020008000000004D0700089D0A00087A
:10004000B7010008B7010008B7010008B7010008B0
:10005000B7010008B7010008B7010008B7010008A0
:10006000B7010008B7010008B7010008B701000890
:10007000B7010008B7010008B7010008B701000880
:10008000B7010008B7010008B7010008B701000870
:10009000B7010008B7010008B7010008B701000860
:1000A000B7010008B7010008B7010008B701000850
:1000B000B7010008B7010008B7010008B701000840
:1000C000B7010008B7010008B7010008B701000830
:1000D000B7010008FD0A0008B7010008B7010008D1
:1000E000B7010008B7010008B7010008B701000810
:1000F000B7010008B7010008B7010008B701000800
:10010000B7010008B7010008B7010008B7010008EF
:10011000B7010008B7010008B7010008B7010008DF
:10012000B7010008B7010008B7010008B7010008CF
:10013000B7010008B7010008B7010008B7010008BF
:10014000B7010008B7010008B7010008B7010008AF
:10015000B7010008B7010008B7010008B70100089F
:10016000B7010008B7010008B7010008B70100088F
:10017000B7010008B7010008B7010008B70100087F
:10018000B7010008B7010008DFF80CD000F02EF826
:10019000004800475D1300082005002006488047FE
:1001A00006480047FEE7FEE7FEE7FEE7FEE7FEE75C
:1001B000FEE7FEE7FEE7FEE7A10A00088901000866
:1001C00030B50B46014600202022012409E021FA27
:1001D00002F59D4205D303FA02F5491B04FA02F524
:1001E0002844151EA2F10102F1DC30BD064C074D7A
:1001F00006E0E06840F0010394E8070098471034F7
:10020000AC42F6D3FFF7C4FF481400086814000896
:10021000FEE730B50346002005E01C5C0D5CAC42F7
:1002200005D1401CC0B29042F7DB4FF0FF3030BD2B
:100230007047000070B586B00121084600F05EFBF3
:100240000121102000F068FB00248DF816400120E9
:100250008DF8170002258DF815508DF814504002C6
:1002600004901C4E04A9304600F038F88DF8145064
:100270006902049104A9304600F030F807220A21EF
:10028000304600F069F807220921304600F064F892
:100290004FF4E1300090ADF80440ADF80640ADF801
:1002A0000840ADF80C400C20ADF80A000A4C694635
:1002B000204600F0A5FC00F0F7F9012240F225519C
:1002C000204600F082FC0121204600F04BFC06B0E5
:1002D00070BD000000000240001001402DE9F04117
:1002E000002201274FF0030C07FA02F50B682B40A0
:1002F000AB422CD1066853000CFA03F4A643066007
:100300000E79D0F800809E4046EA080606600E7915
:10031000012E01D0022E12D18668A64386604E7946
:10032000D0F808809E4046EA080686604668AE43DC
:10033000466045688E799640B6B235434560C568DB
:10034000A543C560CC799C40C3681C43C460521C63
:10035000102AC9D3BDE8F08110B54B07DB0E9A40D7
:10036000C90800EB8100016A0F249C40A14301628F
:10037000016A1143016210BD0246002012690A425F
:1003800000D0012070474183704701837047FEE72A
:1003900070B50E4D4FF4007421462846FFF7F3FF69
:1003A00000F026F8661031462846FFF7EEFF00F011
:1003B0001FF831462846FFF7E6FF00F019F82146FE
:1003C0002846BDE87040FFF7E0BF0000000402408F
:1003D00010B5044600F012F800F09CF8204600F03A
:1003E00067F800F0CDF8044600F0B4F8204610BDE0
:1003F0000020401CC0B24628FBD370471CB5012129
:10040000022000F07BFA02208DF8050001208DF813
:1004100004008DF8060000208DF807004FF44070AE
:10042000009069460248FFF759FF00F093F81CBDA1
:100430000004024070B50A4C4FF400712046FFF7EB
:10044000A4FFFFF7D5FFA51529462046FFF79DFF1E
:10045000FFF7CEFF29462046BDE87040FFF793BF67
:10046000000402402DE9F0410025104E4FF40078C1
:100470004FF480776006040E39463046FFF785FF5B
:10048000FFF7B6FF41463046FFF776FF08B1641C20
:10049000E4B239463046FFF776FFFFF7A9FF6D1C3F
:1004A000EDB2082DE6D32046BDE8F08100040240FD
:1004B0002DE9F04105460024154E4FF480774FF4A6
:1004C0000078280604D541463046FFF75EFF03E07A
:1004D00041463046FFF757FFFFF78AFF394630465F
:1004E000FFF753FFFFF784FF39463046FFF74BFF16
:1004F000072C03D141463046FFF747FF6806050E3B
:10050000FFF776FF641CE4B2082CDAD3BDE8F08173
:100510000004024070B50E4D4FF400742146284689
:10052000FFF733FF661031462846FFF72EFFFFF72F
:100530005FFF21462846FFF726FFFFF759FF3146A8
:100540002846FFF720FFBDE87040FFF751BF0000CD
:100550000004024070B5094D4FF40074214628464E
:10056000FFF711FF61102846FFF70FFFFFF740FF6D
:1005700021462846BDE87040FFF707BF000402404F
:1005800070B5104D4FF4007421462846FFF7FDFE6C
:10059000FFF72EFF661031462846FFF7F6FEFFF7FD
:1005A00027FF21462846FFF7E7FE012808D0002450
:1005B00031462846FFF7E7FEFFF71AFF204670BDD9
:1005C0000124F5E7000402401CB50121052000F0DC
:1005D00095F90120009000248DF804408DF8074023
:1005E00069460748FFF77AFE4FF4005000908DF8F7
:1005F00004408DF8074069460248FFF76FFE1CBDB6
:10060000000002400008024070B504460D4629462D
:100610002046FFF7B1FE012801D0002070BD294619
:100620002046FFF7A9FE0128F9D0012070BD000087
:100630002DE9FC410121202000F060F940240094C4
:1006400001208DF8040000218DF806108DF80700B8
:100650008DF805100B4F69463846FFF73FFE8026A0
:10066000009669463846FFF739FEA50000956946B1
:100670003846FFF733FE03481830048006800580B3
:10068000BDE8FC810014024010B50022044C02E0D9
:100690008354521C92B2A35C002BF9D10A8010BD86
:1006A0001C000020FEE7704708B54FF4A06000F082
:1006B00043F825208DF8000001208DF801008DF809
:1006C00002008DF80300684600F002F808BD000043
:1006D00030B50F23C27801250178002A1FD0154AB2
:1006E000126802F4E062C2F5E062C2F30722C2F1CE
:1006F0000404D3404278A24084781C401443220171
:1007000001F1E02181F80024007800F01F018D4004
:100710004009800000F1E020C0F8005130BD01F038
:100720001F0085404809800000F1E020C0F880519A
:1007300030BD00000CED00E00249084302490860AA
:10074000704700000000FA050CED00E07047000063
:1007500070B5054616465B1C0CD0095D0EA000F076
:10076000B7FA295D10A000F0B3FABDE8704012A0FE
:1007700000F0AEBA00240BE0295D18A000F0A8FA42
:10078000E043000702D116A000F0A2FA641CE4B214
:10079000B442F1DB70BD0000D4ADCAFDBEDDA3BA2A
:1007A0002563200A00000000B6C1CAFDBEDDA3BA61
:1007B0002563200A00000000B4EDCEF33A45455011
:1007C000524F4DB6C1B3F6D3EBD0B4C8EBB5C4CAE3
:1007D000FDBEDDB2BBD2BBD6C20000002563200047
:1007E0000D0A000010B504465B1C0BD008A000F0F9
:1007F0006FFA21460BA000F06BFABDE810400DA087
:1008000000F066BA2146BDE8104013A000F060BABF
:100810000D0AD4ADCABCCAFDBEDDA3BA25730D0A4C
:1008200000000000B6C1B3F6CAFDBEDDA3BA257351
:100830000D0A0000B4EDCEF33A454550524F4DB687
:10084000C1B3F6D3EBD0B4C8EBB5C4CAFDBEDDB2BC
:10085000BBD2BBD6C200000025730A0070B50546A6
:1008600016461C46601C0CD0095D10A000F030FA42
:10087000295D12A000F02CFABDE8704013A000F032
:1008800027BA00240BE0295D19A000F021FAE0430B
:10089000000702D118A000F01BFA641CE4B2B442B5
:1008A000F1DBBDE8704014A000F012BA0D0AD4AD1F
:1008B000CAFDBEDDA3BA253033640A00B6C1CAFD45
:1008C000BEDDA3BA253033640A000000B4EDCEF3D8
:1008D0003A454550524F4DB6C1B3F6D3EBD0B4C8EC
:1008E000EBB5C4CAFDBEDDB2BBD2BBD6C2000000B0
:1008F00020253033640000000D0A0000054A00295D
:1009000003D0116801431160704711688143116081
:100910007047000030380240054A002903D01168B2
:1009200001431160704711688143116070470000F6
:100930004438024070B5244B196801F00C01234C77
:1009400000291ED0224E04291DD008291DD0046084
:10095000196801F0F00109091E4A545C0168E14080
:1009600041601C6804F4E054A40A145D21FA04F404
:1009700084601B6803F460435B0BD25CD140C160B0
:1009800070BD0460E4E70660E2E70F4A121F1168D9
:10099000C1F38055116801F03F0135B1B6FBF1F1AB
:1009A0001468C4F38814614305E0B4FBF1F11468E2
:1009B000C4F3881461431268C2F30142521C52000E
:1009C000B1FBF2F10160C3E7083802400024F400F3
:1009D00040787D010000002070478154012018708C
:1009E000704700000CB50022019200922749086868
:1009F00040F4803008604FF4A043086800F40030F1
:100A000000900198401C0190009810B901989842FC
:100A1000F3D10868800302D50120009000E0009225
:100A20000098012831D119484030026842F08052C4
:100A300002601748026842F44042026013480830DE
:100A400002680260026842F400420260026842F4F6
:100A5000A0520260021F0F4B13600A6842F08072BE
:100A60000A600A689201FCD50B4A40F205711160D8
:100A7000016821F003010160016841F00201016099
:100A80000168C1F381010229FAD10CBD003802408E
:100A90000070004019544007003C024070470000BD
:100AA00010B51248016841F47001016010480168F6
:100AB00041F0010101600E4A002108321160026814
:100AC0000C4B1A400260031D0B4A1A60026822F4A4
:100AD0008022026006480C300160FFF783FF034963
:100AE0004FF000608039086010BD000088ED00E024
:100AF00000380240FFFFF6FE1030002470B5124CA3
:100B000000252570114E40F22551304600F03DF889
:100B100088B1304600F0D2F8C1B2A088234682B234
:100B20000B48FFF75AFF60680949401C60600D548C
:100B300008A000F0CDF86168B1F5807F03DD07A063
:100B400000F0C6F8656070BD100000200010014084
:100B50001C00002046696E697368000025640D0A58
:100B600000000000002904D0818941F400518181F6
:100B70007047818921F4005181817047024600202D
:100B800012880A4200D00120704770B5002440F658
:100B90006A12C1F3421301F01F05012606FA05F29D
:100BA000012B0CD0022B0DD0838A1340090A8E40F2
:100BB000008830400BB100B10124204670BD83890C
:100BC0001340F3E7038A1340F0E710B540F66A13C9
:100BD000C1F3421301F01F040121A140012B07D0F2
:100BE000022B07D014303AB102680A43026010BDEC
:100BF0000C30F8E71030F6E702688A43026010BD57
:100C00007FB504460D46208A20F44051E888084309
:100C10002082A08941F20C618843A9882A89114366
:100C20006A8902431143A181A08A20F44071A889F6
:100C30000843A0826846FFF77DFE1E48844202D02A
:100C40001D48844201D1039800E00298A18909045B
:100C500008D500EBC00101EB001029684900B0FB8A
:100C6000F1F007E000EBC00101EB001029688900FA
:100C7000B0FBF1F06422B0FBF2F109010B096FF057
:100C800018056B4300EB8300A3891D044FF032036A
:100C900007D503EBC000B0FBF2F000F007000843FB
:100CA00006E003EB0010B0FBF2F000F00F00084389
:100CB00020817FBD00100140001401408088C0F3F6
:100CC00008007047C1F3080181807047FEE700000B
:100CD0000FB4054B10B503A9044A029800F018F8A8
:100CE00010BC5DF814FB0000391300081800002048
:100CF00002E008C8121F08C1002AFAD170477047E5
:100D0000002001E001C1121F002AFBD17047000042
:100D10002DE9FF4F8BB088460546002606E02528C2
:100D20000BD0DDE90D1290476D1C761C2878002849
:100D3000F5D10FB03046BDE8F08F0024A146A246A1
:100D40000122AE4900E0044315F8013F203B02FABE
:100D500003F00842F7D128782A2810D06FF02F022C
:100D60002878A0F13001092915D809EB890102EB97
:100D7000410144F0020400EB01096D1CF0E758F852
:100D8000041B5FEA010903D544F40054C9F10009CA
:100D900044F002046D1C28782E2817D115F8010F95
:100DA00044F004042A280ED06FF02F022878A0F116
:100DB000300109290AD80AEB8A0102EB410100EB54
:100DC000010A6D1CF2E758F804AB6D1C28786C28FA
:100DD0000FD006DC4C2817D068280DD06A2814D113
:100DE00004E0742810D07A280FD10DE044F40014E8
:100DF0000AE044F4801401E044F44014697881422C
:100E000002D104F580146D1C6D1C2878692865D00A
:100E100006DC00288DD0632827D0642806D15DE049
:100E20006E2808D073282AD0752877D0DDE90D12F6
:100E30009047761CE0E0C4F30250022809D0032852
:100E40000DD0D8F8001004280DD00E6008F1040869
:100E5000D2E0D8F80010F217C1E90062F6E7D8F83E
:100E600000100E80F2E70E70F0E718F8041B8DF802
:100E7000001000208DF80100EB46012003E058F837
:100E800004BB4FF0FF3061074FF0000701D40AE0C8
:100E90007F1C57450DDA8742FADB1BF80710002943
:100EA000F6D106E07F1C8742FCDB1BF80710002907
:100EB000F8D1DDE90D23A9EB07008146214600F0BA
:100EC000B1F83044C61904E0DDE90D121BF8010B3E
:100ED00090477F1EF8D22146484688E058F8040B18
:100EE000C4F302514FF00A0B032900D100B20429C8
:100EF00000D140B2002802DA40422D2102E0210553
:100F000005D52B218DF82410012104E006E0E1072E
:100F100010D02021F6E708AF089113E058F8040B31
:100F2000C4F302514FF00A0B032900D180B2042907
:100F300000D1C0B20021EEE75946FFF741F9303148
:100F400007F8011D0028F7D1ADEB070000F1200BD9
:100F5000600702D524F4803401E04FF0010ADA453D
:100F600002DDAAEB0B0000E00020824600EB0B0143
:100F700008980144A9EB01000A90E00306D4DDE9DA
:100F80000D2321460A9800F04DF806444FF0000961
:100F900008E009A911F80900DDE90D12904709F1EF
:100FA0000109761C08998945F3DBE0030CD5DDE9DE
:100FB0000D2321460A9800F035F8064404E0DDE9E7
:100FC0000D1230209047761CBAF10001AAF1010AF7
:100FD000F5DC05E0DDE90D1217F8010B9047761CF2
:100FE000BBF10001ABF1010BF4DC0A982146DDE90D
:100FF0000D2300F005F806446D1C97E60928010052
:101000002DE9F041044600251E461746880404D405
:1010100005E039462020B0476D1C641EF9D52846EE
:10102000BDE8F0812DE9F041044600251E469046BA
:10103000C80301D5302700E02027880404D505E047
:1010400041463846B0476D1C641EF9D52846BDE8B8
:10105000F08110B5A020FFF7BBF918B1FFF77AFABD
:10106000002010BD012010BD01B502E00098401E17
:10107000009000980028F9D108BD00002DE9F0414A
:1010800005460E4617461C463A460021284600F003
:1010900051F8A8B11BA0FFF71BFE012C15D0022CA4
:1010A00020D0032C2BD13A4631462846FFF7B1F821
:1010B00003463A4631462846BDE8F041FFF7CEBB2D
:1010C000BDE8F04116A0FFF703BE3A463146284678
:1010D000FFF79FF803463A4631462846BDE8F041FF
:1010E000FFF736BB3A4631462846FFF792F80346EB
:1010F0003A4631462846BDE8F041FFF773BBBDE8EC
:10110000F0810000B6C1656570726F6DB3C9B9A694
:10111000A3ACCAFDBEDDC8E7CFC2A3BA0D0A00006A
:10112000B6C1656570726F6DB3F6B4EDA3A10D0A1B
:10113000000000002DE9F04105460C461646FFF779
:10114000E9F9A020FFF7B4F9FFF71AFA18B119A0CE
:10115000FFF7BEFD14E0E0B2FFF7AAF9FFF710FABF
:1011600018B11BA0FFF7B4FD0AE0FFF7D3F9A120E7
:10117000FFF79EF9FFF704FA38B11BA0FFF7A8FDAF
:10118000FFF7E8F90020BDE8F0810024771E0BE0AE
:10119000FFF768F92855BC4202D0FFF7F9F801E0E3
:1011A000FFF748F9641CA4B2B442F1D3FFF7D2F9B7
:1011B0000120E8E753656E64204D53422B4164647F
:1011C0002B572F52204E6F2041434B0A0000000046
:1011D00053656E64205061676520416464204E6FE2
:1011E0002041636B0A00000053656E64204D656EFC
:1011F0006F727920416464204E6F2041636B0A0056
:1012000070B505460C46FFF724FF10B90AA0FFF79A
:101210005FFD22460021284600F030F838B10CA0CE
:10122000FFF756FDBDE870400E48FFF71DBF0EA04A
:10123000FFF74EFDF6E70000C3BBD3D0BCECB2E233
:10124000B5BDB4AED0D0454550524F4D210D0A002A
:10125000D0B4656570726F6DB3C9B9A6A3A10D0A4C
:1012600000000000FFFF0F00D0B4656570726F6D65
:10127000B3F6B4EDA3A10D0A000000002DE9F0477C
:1012800080460E46914600254FF47A7734E00DB142
:1012900070071ED1FFF75EF90024FFF73BF9A0208D
:1012A000FFF706F9FFF76CF918B1641CA4B2BC4251
:1012B000F3D3BC4203D113A0FFF70AFD13E0F0B251
:1012C000FFF7F6F8FFF75CF918B111A0FFF700FD82
:1012D00009E018F80500FFF7EBF8FFF751F938B10E
:1012E00010A0FFF7F5FCFFF735F90020BDE8F08707
:1012F000761CB6B26D1CADB24D45C8D3FFF72AF9C6
:101300000120F3E754696D65204F7574210A0000D0
:1013100053656E6420416464204E6F2041636B0A04
:101320000000000053656E642044617461204E6FBC
:101330002041636B0A00000070B50446064DE1B21F
:101340002846FFF7BFFC80212846FFF717FC00283E
:10135000F9D0204670BD000000100140ADF5027DBF
:10136000FFF732F9FFF764F91B4840210180802123
:10137000018019498015891C0880FEF75BFF17A0C2
:10138000FFF7A6FC1FA0FFF7A3FC294C294E4FF442
:10139000005501212046FFF737F901280DD181A919
:1013A00041A8FFF771F9BDF8041241A8FFF728FF23
:1013B000BDF8041220A0FFF78BFC29463046FFF74A
:1013C00023F90128E5D10223BDF8042241A901A88F
:1013D000FFF754FEDDE70000181402400D0ABBB60B
:1013E000D3ADCAB9D3C3D2B0BBF0202053544D33D0
:1013F00032204634303720BFAAB7A2B0E5A1A30DF2
:101400000A0000000D0AD5E2CAC7D2BBB8F64932BD
:1014100043CDE2C9E8284154323443303229B6C1C1
:10142000D0B4B2E2CAD4C0FDB3CC200D0A00000093
:1014300000000240000802400D0A6C656E203D204D
:1014400025640D0A00000000681400080000002058
:101450001C000000F00C0008841400081C00002090
:1014600004050000000D0008000000000102030454
:101470000102030406070809000000000000000044
:041480000000000068
:040000050800018965
:00000001FF
