:020000040800F2
:10000000B80400209D010008DF07000881050008F2
:10001000DD070008E5010008350C000800000000BD
:100020000000000000000000000000002909000896
:10003000D70400080000000049080008E50900088E
:10004000B7010008B7010008B7010008B7010008B0
:10005000B7010008B7010008B7010008B7010008A0
:10006000B7010008B7010008B7010008B701000890
:10007000B7010008B7010008B7010008B701000880
:10008000B7010008B7010008B7010008B701000870
:10009000B7010008B7010008B7010008B701000860
:1000A000B7010008B7010008B7010008B701000850
:1000B000B7010008B7010008B7010008B701000840
:1000C000B7010008B7010008B7010008B701000830
:1000D000B7010008450A0008B7010008B701000889
:1000E000B7010008B7010008B7010008B701000810
:1000F000B7010008B7010008B7010008B701000800
:10010000B7010008B7010008B7010008B7010008EF
:10011000B7010008B7010008B7010008B7010008DF
:10012000B7010008B7010008B7010008B7010008CF
:10013000B7010008B7010008B7010008B7010008BF
:10014000B7010008B7010008B7010008B7010008AF
:10015000B7010008B7010008E9010008B70100086D
:10016000B7010008B7010008B7010008B70100088F
:10017000B7010008B7010008B7010008B70100087F
:10018000B7010008B7010008DFF80CD000F018F83C
:1001900000480047550C0008B80400200648804776
:1001A00006480047FEE7FEE7FEE7FEE7FEE7FEE75C
:1001B000FEE7FEE7FEE7FEE7E9090008890100081F
:1001C000064C074D06E0E06840F0010394E80700A4
:1001D00098471034AC42F6D3FFF7DAFFA80C0008BA
:1001E000C80C0008FEE7000070B50C4C4FF020551D
:1001F0002946204600F0EEF800280DD0294620467A
:1002000000F010F80021204600F038F82046BDE844
:100210007040034900F01CB870BD0000B864024093
:1002200000800028074A904201D2074801E00548B3
:100230001038064A8B0001EA020101D5C1607047FF
:100240008160704710640240006002407D0F7D0FA6
:10025000074A904201D2074801E005481038064A93
:100260008B0001EA020101D5C160704781607047CF
:1002700010640240006002407D0F7D0F002904D011
:10028000016841F0010101607047016821F001013E
:10029000016070472DE9F043016821F00101016020
:1002A0000021016041608160C160016121214161E3
:1002B0003E493E4A10394FF03D08904203D1C1F803
:1002C0000880BDE8F083394A4FF4746518329042D3
:1002D00001D18D60F5E7354A4FF474163032904203
:1002E00001D18E60EDE7314A4FF074674832904299
:1002F00001D18F60E5E72D4B2D4A6033984201D143
:10030000CA60DEE7294C2B4B7834A04201D1CB6088
:10031000D7E7DFF898C0284C0CF1900C604501D16C
:10032000CC60CEE7DFF884904FF03D5C09F1A8097E
:10033000484502D1C1F80CC0C3E72049DFF87C90E2
:100340000839484502D1C1F80080BAE7DFF86C806F
:1003500008F11808404501D10D60B2E7174D30355E
:10036000A84201D10E60ACE7144D4835A84201D136
:100370000F60A6E7114D11496035091FA84201D150
:100380000A609EE70D4A7832904201D10B6098E7EF
:100390000A4A9032904201D10C6092E7074AA83293
:1003A00090428ED1C1F800C08BE70000106002407F
:1003B0003D000020400F002000003D20106402405E
:1003C000014600200968C90700D001207047406835
:1003D00080B2704702460020084B9A4201D2084A78
:1003E00001E0064A103A8B0001D5526800E012681D
:1003F000044B1A400A4200D00120704710640240AA
:10040000006002407D0F7D0F0B0609D522B14369C4
:1004100043F08003436103E0436923F080034361B9
:10042000802905D001F01E011AB102680A4302605A
:10043000704702688A4302607047000030B5036865
:10044000124A1340CC680A682243D1E905452C437F
:100450002243CC6922430C6A22434C6A22438C6AB1
:1004600022434C6B22438C6B22431A430260426945
:1004700022F00703D1E90B2422431A4342610A699F
:1004800042604A6882608968C16030BD3F801CF06C
:1004900070B504460D4600212046FFF7EFFE2046CA
:1004A000FFF78EFF0028FAD12946204600F006F813
:1004B0002046BDE870400121FFF7E0BE4160704773
:1004C00010B50121880500F0C1F900F095F8BDE8EC
:1004D000104000F057B8704701B50098411E0091D8
:1004E000FBD208BD2DE9F041002201274FF0030C9B
:1004F00007FA02F50B682B40AB422CD1066853007B
:100500000CFA03F4A64306600E79D0F800809E40F2
:1005100046EA080606600E79012E01D0022E12D19D
:100520008668A64386604E79D0F808809E4046EAE9
:10053000080686604668AE43466045688E799640F8
:10054000B6B235434560C568A543C560CC799C40CB
:10055000C3681C43C460521C102AC9D3BDE8F08193
:1005600010B54B07DB0E9A40C90800EB8100016A09
:100570000F249C40A1430162016A1143016210BD36
:10058000FEE7000010B5194C2046FFF783FE204619
:10059000FFF716FF0028FAD115484FF000610160FF
:1005A00014494160A0F1350181600021C160202221
:1005B0000261416152018261C16101624162920145
:1005C0008262C16203220263416381630146204665
:1005D000FFF734FF074801224021001F00F086FA90
:1005E0002046BDE810400121FFF748BE8864024064
:1005F000780000200410014070B5214D2846FFF717
:1006000049FE2846FFF7DCFE0028FAD11D484FF0CE
:10061000006101601C494160A0F1580181604021E6
:10062000C160202101610024446149018161C461EC
:100630000462446289018162C462032101634463EC
:10064000846301462846FFF7F9FE104946200870EA
:100650004C708C700120C870084600F0C1F80A4840
:1006600001228021001F00F041FA00212846FFF7F7
:1006700005FE2846BDE8704001221021FFF7C4BEE8
:10068000B8640240780000200410014014000020EB
:1006900010B50121084600F0D9F80D4C07220921B8
:1006A0002046FFF75DFF07220A212046FFF758FF8B
:1006B00008494FF4C060086002220A710020887166
:1006C0000120C8714A712046BDE81040FFF70ABFFB
:1006D000000002401800002010B5FFF7D9FF0121EB
:1006E000102000F0C1F80F484FF4E1310160002103
:1006F0008180C180018181810C2141810A4C0146A8
:10070000204600F039FA0121204600F0E3F90122E9
:1007100040F22441204600F013FABDE8104000F0FA
:1007200005B80000680000200010014004482521A1
:1007300001700321417081700121C17000F050B837
:10074000140000201CB50121052000F07FF80120D5
:10075000009000248DF804408DF807406946074852
:10076000FFF7C0FE4FF4005000908DF804408DF864
:10077000074069460248FFF7B5FE1CBD0000024075
:10078000000802402DE9FC410121202000F05EF824
:100790004024009401208DF8040000218DF80610FB
:1007A0008DF807008DF805100B4F69463846FFF7A6
:1007B00099FE8026009669463846FFF793FEA5000D
:1007C000009569463846FFF78DFE034818300480CF
:1007D00006800580BDE8FC8100140240FEE77047FA
:1007E00030B50F23C27801250178002A1FD0154AA1
:1007F000126802F4E062C2F5E062C2F30722C2F1BD
:100800000404D3404278A24084781C40144322015F
:1008100001F1E02181F80024007800F01F018D40F3
:100820004009800000F1E020C0F8005130BD01F027
:100830001F0085404809800000F1E020C0F8805189
:1008400030BD00000CED00E070470000054A0029B3
:1008500003D0116801431160704711688143116032
:100860007047000030380240054A002903D0116863
:1008700001431160704711688143116070470000A7
:100880004438024070B5244B196801F00C01234C28
:1008900000291ED0224E04291DD008291DD0046035
:1008A000196801F0F00109091E4A545C0168E14031
:1008B00041601C6804F4E054A40A145D21FA04F4B5
:1008C00084601B6803F460435B0BD25CD140C16061
:1008D00070BD0460E4E70660E2E70F4A121F11688A
:1008E000C1F38055116801F03F0135B1B6FBF1F15C
:1008F0001468C4F38814614305E0B4FBF1F1146893
:10090000C4F3881461431268C2F30142521C5200BE
:10091000B1FBF2F10160C3E7083802400024F400A3
:1009200040787D0100000020704700000CB50022D7
:10093000019200922749086840F4803008604FF423
:10094000A043086800F4003000900198401C01901A
:10095000009810B901989842F3D10868800302D535
:100960000120009000E000920098012831D1194840
:100970004030026842F0805202601748026842F438
:10098000404202601348083002680260026842F484
:1009900000420260026842F4A0520260021F0F4B44
:1009A00013600A6842F080720A600A689201FCD5FE
:1009B0000B4A40F205711160016821F003010160EA
:1009C000016841F0020101600168C1F3810102295F
:1009D000FAD10CBD003802400070004019544007A5
:1009E000003C02407047000010B51248016841F415
:1009F000700101601048016841F0010101600E4A78
:100A000000210832116002680C4B1A400260031D7D
:100A10000B4A1A60026822F48022026006480C30F9
:100A20000160FFF783FF03494FF0006080390860E1
:100A300010BD000088ED00E000380240FFFFF6FE28
:100A40001030002470B51E4D40F22441284600F0BD
:100A500057F8002832D01B4C00212046FFF70EFC2F
:100A60002888A8882046FFF7B2FCC0F1200082B297
:100A700015484280A2B1012101700021134BA3F15E
:100A8000230003E05D5C4554491C89B29142F9D3CF
:100A90000021002002E05854491C89B29142FAD347
:100AA0000B492046FFF7BEFB20212046FFF706FD3D
:100AB0002046BDE870400121FFF7E0BB70BD00009B
:100AC0000010014088640240100000204300002014
:100AD000400F0020002904D0818941F40051818118
:100AE0007047818921F4005181817047002A03D029
:100AF000828A0A4382827047828A8A43828270474E
:100B000070B5002440F66A12C1F3421301F01F05CC
:100B1000012606FA05F2012B0CD0022B0DD0838A98
:100B20001340090A8E40008830400BB100B1012407
:100B3000204670BD83891340F3E7038A1340F0E732
:100B400010B540F66A13C1F3421301F01F040121EE
:100B5000A140012B07D0022B07D014303AB1026814
:100B60000A43026010BD0C30F8E71030F6E7026867
:100B70008A43026010BD00007FB504460D46208AFE
:100B800020F44051E88808432082A08941F20C619A
:100B90008843A9882A8911436A8902431143A181A4
:100BA000A08A20F44071A8890843A0826846FFF714
:100BB00069FE1E48844202D01D48844201D1039838
:100BC00000E00298A189090408D500EBC00101EBFF
:100BD000001029684900B0FBF1F007E000EBC0010C
:100BE00001EB001029688900B0FBF1F06422B0FB32
:100BF000F2F109010B096FF018056B4300EB83005C
:100C0000A3891D044FF0320307D503EBC000B0FBEE
:100C1000F2F000F00700084306E003EB0010B0FB21
:100C2000F2F000F00F00084320817FBD001001406A
:100C300000140140FEE702E008C8121F08C1002AA4
:100C4000FAD170477047002001E001C1121F002A4D
:100C5000FBD17047FFF796FDFFF774FDFFF73CFDF2
:100C6000FFF72EFC0B4D0C4FDFF830800C4CDFF8FB
:100C700034900026287820B139884046FFF708FCD8
:100C80002E70206880F0800020604846FFF724FC2A
:100C9000F0E700001000002012000020B8640240BD
:100CA00014140240FFFF6F00C80C00080000002071
:100CB00020000000360C0008E80C0008200000208E
:100CC00098040000460C0008000000000102030424
:100CD00001020304060708090000000000000000EC
:080CE00000000000000000000C
:040000050800018965
:00000001FF
